:020000041004E6
:1000000000600020FDA50410537404100B59041067
:10001000AA5555AA45554C420000000000000000BA
:1000200000000000000000000000000051C50410A6
:100030000000000000000000AF880410A9C80410F0
:10004000933F041021750410000000000000000020
:10005000C5CC041037C50410F51E041091CE041051
:100060000000000000000000000000000000000090
:1000700000000000010B04100F5904100D5904106A
:1000800000000000617304106373041065730410B2
:10009000677304101DA6041055760410FD26041085
:1000A0000000000000000000000000000000000050
:1000B0000000000000000000000000000000000040
:1000C00000F002F800F08BF80CA030C808382418B3
:1000D0002D18A246671EAB4654465D46AC4201D180
:1000E00000F07DF87E460F3E0FCCB6460126334227
:1000F00000D0FB1AA246AB463343184760410100CB
:10010000E0410100103A02D378C878C1FAD852070A
:1001100001D330C830C101D504680C6070470000BD
:100120000023002400250026103A01D378C1FBD813
:10013000520700D330C100D50B607047F0B543467D
:100140004C4655465E466746F8B4104C6B462360F5
:100150000F4C20680F4C20600F4C20680F4C206023
:100160000F4C20680F4C2060BFF34F8F30BF074CFF
:100170002468A546F8BC9846A146AA46B346BC46A4
:10018000F0BD00BF30BF00BF704700000800002076
:1001900004ED00E0E402002024ED00E0E80200208D
:1001A00000E200E0EC02002010B5642902D100F06A
:1001B000A1F810BD782902D100F0D2F810BD632952
:1001C00002D100F013FC10BD732902D100F016FC1F
:1001D00010BD002010BD1FB51FBD10B510BD0448D7
:1001E0008546FFF7F8FF11F0E5F800F04FFC00003E
:1001F0000060002003B4FFF7F0FF03BC00F04EFCEA
:1002000070B505460C46164602E00FCC0FC5103EF1
:10021000102EFAD2082E02D303CC03C5083E042EBA
:1002200007D301CC01C5361F03E021782970641C77
:100230006D1C761EF9D270BD0FB4054910B503AA26
:10024000029800F0DFFB10BC08BC04B018470000A7
:10025000DC02002070B5044685690068C10601D53E
:10026000302600E02026C00707D070BD6268304607
:10027000A1689047206A401C20626D1EF6D570BDB3
:1002800070B5044685690078C00707D170BD626803
:10029000A16820209047206A401C20626D1EF6D580
:1002A00070BD70B50C460546012A05D02878800639
:1002B00000D5EA69002302E0012305E05B1C9342BC
:1002C00002D2E05C0028F9D1A869E618C01AA8613A
:1002D000286AC01828622846FFF7BCFF04E06A6855
:1002E0002078A968641C9047B442F8D32846FFF7E9
:1002F000C7FF70BDF7B5002575291068009914A6D1
:1003000011D0C046C046002802DA404211A608E0DB
:10031000009909688A0701D50FA602E0490704D5AC
:100320000EA6012501E0C046C046009F00242437E8
:1003300004E000F07BFB30313955641C0028F8D113
:100340002B4632462146009800F0EDFAFEBD000033
:10035000000000002D0000002B0000002000000025
:1003600070B504460D4621461068C046C046218837
:10037000090502D50F4A7A4402E00E4A7A440E3249
:1003800023460021243305E006070009360F965D59
:100390005E54491C0028F7D120780023000705D5BA
:1003A000702D03D0002901D002231132204600F025
:1003B000BAFA70BD7E3D0100F3B50446002081B05D
:1003C00020622046E168884700287DD0252802D099
:1003D0006268A16883E0454F00257F442046E168BC
:1003E00088472028064608DB312E06D2B819203867
:1003F0000078002801D00543F0E7A80701D50420C4
:1004000085430020E0610746A0612A2E0AD03046CD
:100410000DF02AF9002827D0B8000019303E0090CE
:10042000866119E00298BA00121902C8916102901F
:100430002046E1688847012F064617D1E069002869
:100440001FDA202085431CE000980A218069484378
:1004500000998019303888612046E168884706464F
:100460000DF002F90028EFD1012F0AD02E2E08D16D
:100470002046E16888470646202005437F1C022F5E
:10048000C3DBA069002803DA4042A06101200543D4
:10049000E80701D010208543002E24D03046413893
:1004A000192803D80120C0020543203620462560C4
:1004B0003146029A1546FFF777FE00280CD0012836
:1004C00007D0ED1DE80800E00DE0C0000830029004
:1004D00077E72D1D029574E762683046A168904762
:1004E000206A401C6CE7206AFEBD0000423D01000E
:1004F000034610B50B439B070FD1042A0DD308C840
:1005000010C9121FA342F8D018BA21BA884201D9E3
:10051000012010BD0020C04310BD002A03D0D30726
:1005200003D0521C07E0002010BD03780C78401C5B
:10053000491C1B1B07D103780C78401C491C1B1B52
:1005400001D1921EF1D1184610BD000030B5441CF7
:1005500003E00178401C00290DD08107F9D10B4B35
:10056000DD0104C8D11A91432940FAD0001B0A06C4
:1005700003D0C01E30BD001B30BD0A0401D0801E58
:1005800030BD0902FCD0401E30BD00000101010158
:1005900010B5044600F002F8204610BDF8B5042A54
:1005A0002CD3830712D00B78491C0370401C521EB9
:1005B00083070BD00B78491C0370401C521E830725
:1005C00004D00B78491C0370401C521E8B079B0FF4
:1005D00005D0C91ADF002023DE1B08C90AE0FFF797
:1005E0000FFEF8BD1D4608C9FD401C46B4402C4313
:1005F00010C0121F042AF5D2F308C91A521EF0D4F3
:100600000B78491C0370401C521EEAD40B78491C1D
:100610000370401C012AE4D409780170F8BD134628
:1006200010B50446CAB21946100282181004821886
:10063000204600F00FF8204610BD01E004C0091F5D
:100640000429FBD28B0701D50280801CC90700D08A
:100650000270704700290BD0C30702D00270401C03
:10066000491E022904D3830702D50280801C891EFB
:10067000E3E70022EEE70022DFE7000082078B07B6
:100680009A4237D170B5920F0AD0032402780B78C2
:10069000401C491C002A2BD09A4229D12042F5D176
:1006A0001D4EF40104C808C9951B9543254010D17F
:1006B0009A4207D104C808C9951B9543254008D123
:1006C0009A42EFD012BA1BBA01209A4200D240429D
:1006D00070BD12BA1BBA2DBA18241000E0401900E0
:1006E000E140401A05D12E00E64002D1083CF4D189
:1006F000D01A70BD02780B78401C491C002A09D022
:100700009A4207D102780B78401C491C002A01D07C
:100710009A42EFD0D01A7047010101010378C278E4
:100720001946437812061B0219438378C0781B04CC
:10073000194311430902090A0006084370470022C1
:1007400003098B4273D3030A8B4258D3030B8B42AA
:100750003CD3030C8B4221D312E003460B437FD4DE
:10076000002243088B4274D303098B425FD3030AF0
:100770008B4244D3030B8B4228D3030C8B420DD303
:10078000FF22090212BA030C8B4202D31212090291
:1007900065D0030B8B4219D300E0090AC30B8B42CF
:1007A00001D3CB03C01A5241830B8B4201D38B037D
:1007B000C01A5241430B8B4201D34B03C01A524122
:1007C000030B8B4201D30B03C01A5241C30A8B4265
:1007D00001D3CB02C01A5241830A8B4201D38B0250
:1007E000C01A5241430A8B4201D34B02C01A5241F4
:1007F000030A8B4201D30B02C01A5241CDD2C30966
:100800008B4201D3CB01C01A524183098B4201D3E1
:100810008B01C01A524143098B4201D34B01C01ACC
:10082000524103098B4201D30B01C01A5241C30844
:100830008B4201D3CB00C01A524183088B4201D3B3
:100840008B00C01A524143088B4201D34B00C01A9F
:100850005241411A00D201465241104670475DE0B4
:10086000CA0F00D04942031000D340425340002237
:100870009C4603098B422DD3030A8B4212D3FC22E0
:10088000890112BA030A8B420CD3890192118B425F
:1008900008D3890192118B4204D389013AD0921175
:1008A00000E08909C3098B4201D3CB01C01A524130
:1008B00083098B4201D38B01C01A524143098B42F9
:1008C00001D34B01C01A524103098B4201D30B01E2
:1008D000C01A5241C3088B4201D3CB00C01A524107
:1008E00083088B4201D38B00C01A5241D9D24308EE
:1008F0008B4201D34B00C01A5241411A00D201462B
:10090000634652415B10104601D34042002B00D594
:100910004942704763465B1000D3404201B5002056
:10092000C046C04602BDFFB504460D4681B0243026
:1009300000902168880604D51022E0699143216067
:1009400000E00120A84201DD471B00E000270498D9
:10095000A1697A191018081AA0612078C00602D47B
:100960002046FFF777FC002608E003986268A1683C
:10097000805D9047206A401C761C20620498864265
:10098000F3DB2078C0060AD52046FFF763FC06E0BB
:100990006268A16830209047206A401C2062384677
:1009A0007F1E0028F4DC07E000986268A168405DC3
:1009B0009047206A401C206228466D1E0028F3DC08
:1009C0002046FFF75DFC2078000602D5022005B026
:1009D000F0BD0120FBE710B54369002B02D0C046F3
:1009E000C04601E0FFF75DFC012010BD1278014612
:1009F00024310A7000224A700122ECE711680022BB
:100A0000D243E8E7084B70B50D467B4400F027F869
:100A10000446284600F036F8002802D00020C043E3
:100A200070BD204670BD0000FDEB0000014680084F
:100A3000081A02091018020A1018020C1018C0082F
:100A4000820012185200891A01E0401C0A390A2952
:100A5000FBD2704701694A1C02610878704700B5F3
:100A60008FB00291002105910549019379440391CA
:100A7000114604906846FFF79FFC0FB000BD0000D0
:100A8000E5FFFFFFC06880210840704710B50446AD
:100A9000C046C0462046FFF7ADFB10BD01491820F7
:100AA000ABBEFEE726000200704770B58C180578D3
:100AB000401C6B075B0F01D10378401C2A1106D143
:100AC0000278401C03E00678401C0E70491C5B1E37
:100AD000F9D12B0705D40023521E0DD40B70491CED
:100AE000FAE70378401CCB1A921C03E01D780D70C6
:100AF000491C5B1C521EF9D5A142D8D3002070BD01
:100B00007047F0B50F46B5B01546002130AA0F2347
:100B1000445C5E1A491C94551029F9DB1022694681
:100B200030A800F017FB0026B400E019401CFFF7C6
:100B3000F5FD395D000208430321891B89002CACB7
:100B4000761C6050042EEFDB214610236A460846CF
:100B500000F0C8F900200326311A8900635C820086
:100B6000AB54635A52191B0A53706358401C1B0C38
:100B700093706158090ED1700428EDDB35B0F0BDDB
:100B800070B5BAB0054600200C460090202069469A
:100B9000087210200A9038901E46039201A800F0B7
:100BA00087F92246294601A800F008F86A4631462E
:100BB00001A800F047F93AB070BD0000F7B5002574
:100BC00092B00F460446002804D0002F06D1149896
:100BD000002803DD6120400115B0F0BD1498002805
:100BE00004DB102804DA2079800601D49448F3E766
:100BF0002079410701D4810702D59148401CEBE7D9
:100C0000402108432071204614300F901430019089
:100C10001EE00026B00004904019C0190390FFF7B1
:100C20007DFD00BA010A03980902C07807AA0143B2
:100C30000498761C0019406941400498042E115014
:100C4000E8DB636A07A8019A0F9900F07FFA059D17
:100C500028461030059014998842DADB2079800606
:100C600020D400291EDD0026B00004904019C019D0
:100C70000390FFF753FD00BA010A03980902C078F8
:100C800007AA01430498761C001940694140049862
:100C9000042E1150E8DB636A07A8019A0F9900F04F
:100CA00055FACAE000200B900C900D900E900BA905
:100CB000636A0846019A00F049FA0B988721C00F31
:100CC00048430B990C9A4900D20F11430B910C9990
:100CD0000D9A4900D20F11430C910D990E9A4900BB
:100CE000D20F11430D910E99149A490041402846A4
:100CF00010300E9190421CD10026B0000290401995
:100D0000C0190490FFF70AFD00BA010A049809020D
:100D1000C0780BAB01430298761C00194269029817
:100D2000185842405140029807AA1150042EE4DBA3
:100D300079E00B988722C00F50430B9A0C9B52000E
:100D4000DB0F1A430B920C9A0D9B5200DB0F1A43D8
:100D50000C920D9ACB0F52001A430D924A0042405A
:100D600014980E92401B0390C017820F0398002620
:100D700010188010029019E0B00010904019C019AE
:100D80000490FFF7CBFC00BA010A04980902C0786E
:100D90000BAB014310980019426910981858424053
:100DA0005140109807AA11500298761CB042E3DC1B
:100DB000B00001190BAA49691258514007AA1150F5
:100DC000039B00211B1A42199C4696460BE0724673
:100DD0005218BA5CCD0018235B1B9A4007AB1D5814
:100DE0006A401A50491C8C45F1DC002909D0CD001D
:100DF000182107AA4D1B13588021A9404B401350BE
:100E000005E007A90A580123DB075A400A5007A941
:100E10000BAA05E0B00003195B6915586B400B5035
:100E2000761C042EF6DB636A07A8019A0F9900F07E
:100E30008DF920790421084320710020CCE60000C0
:100E40001D0C0000F8B516460F46040009D0002E10
:100E500007D025468035E86D401E102804D313487E
:100E6000F8BD61204001F8BD2079400604D400227D
:100E700011462046FFF7A2FE207902210843207187
:100E8000002018210CE0C217920F1218920892004D
:100E9000121983075269DB0ECB1ADA403A54401C10
:100EA000EA6D8242EFDC00203260F8BD1F0C0000CA
:100EB00010B5040007D002230022A16800F014FA44
:100EC000010003D00CE06120400110BD0020102281
:100ED0002261024683001B19401C5A610428F9DB79
:100EE000084610BDFFB5D910490083B0891D029195
:100EF0000368116854684B40416895686140846894
:100F0000C0686C40A446D4681E0E60408C4CC5B2CC
:100F1000A65D655D3606354367460E023F04360E14
:100F20003F0EA65DE75D36043F023E433543009524
:100F30000E0EDDB2A65D655D3606354366463602A9
:100F40000704360E3F0EA65DE75D36043F023E43C2
:100F50003543AE46CDB2665D65462F0EE75D1D0496
:100F60003F063E4307023F0E2D0EE75D655D3F04E1
:100F70002D022F433E4301966546EDB2070E665D96
:100F8000E75D0D043F063E431F023F0EE75D2D0E59
:100F9000645D3F0424022743029C3E43641E1032DA
:100FA0000294002C65DD674C00986749204043009F
:100FB0000098654DC00908401B21484343400099F3
:100FC000184648401821C841434000981021C841A4
:100FD000434000980821C841434010685A4F43409D
:100FE0007046204041007046C00928401B256843D8
:100FF00041400846754668401825E8414140704622
:101000001025E841414070460825E84141405068BC
:10101000019D41400198ED0920403D4040001B27C3
:101020007D436840019F05467D401827FD4168408B
:10103000019D1027FD416840019D0827FD41684042
:10104000956868408446304620403F4DF4092C4066
:1010500040001B256C436040044674401825EC4159
:10106000604010243546E54108246840E641704060
:1010700049E7334CC5B2665D1D0E645D2406264308
:101080000C02250E2E4C645D65462D042F0E2C4D52
:101090002404ED5D2D022C432643294C0096DDB23D
:1010A000655D0E0EA45D2406254364462402260ECB
:1010B000234CA45D0604370E214E2404F65D36024F
:1010C00034432543AE461E4CCDB2645D65461C4E8E
:1010D0002F0EF55D2D062C4305022F0EF55D1F0426
:1010E0002E043D0E164F7F5D65463F023E4334435E
:1010F000EEB2134DAF5D050E1148405D000607438B
:101100001802030E0E48C05C09040B0E0C490004C3
:10111000C95C93680902084307431068009E634056
:101120005168049C7040D2682060754604986940FC
:10113000416004987A4083600498C26007B0F0BDB3
:10114000D03F05107F7F7F7F0101010100B5FFF7D0
:10115000C9FE00BDF7B50298002486100DE0009886
:10116000A7003D182846FFF7D9FA00BA000AE97827
:10117000000208430199641CC851A642EFDC0199A2
:10118000029A084600F002F8FEBD0000F0B5002308
:101190001D46941003E0AA0086588E506D1CAC4288
:1011A000F9DC504FFA1FF93A042C04D0062C28D051
:1011B000082C7DD14FE0C86805022D0E040E555D48
:1011C000145D2D062C4305042D0EC0B2555D105C38
:1011D0002D04000205432C439D007D59086868409A
:1011E000444001205B1C0C61840065180C59EE68BA
:1011F000401C66402E610428F6DB0A2B71DA1031A0
:10120000D9E7486905022D0E040E555D145D2D06C3
:101210002C4305042D0EC0B2555D105C2D04000258
:1012200005432C439D007D590868684044400120D7
:101230005B1C8C61840065180C596E696640AE6158
:10124000032804D0401C0628F4DB1831D9E7082B0A
:1012500047DA0420EEE7C86905022D0E040E555D3D
:10126000145D2D062C4305042D0EC0B2555D105C97
:101270002D04000205432C439D007D5908686840F9
:10128000444001205B1C0C62840065180C59EE6917
:10129000401C66402E620428F6DB072B21DAC86A60
:1012A000050EC4B2555D145D2D062C43050200E009
:1012B00017E02D0E0004555D000E105C2D04000299
:1012C000054308692C43444005200C6384006518DD
:1012D0000C59EE69401C66402E620828F6DB20316E
:1012E000B9E7F0BDD0400510F8B59E468C46002801
:1012F00007D0002905D059078C0F002A04D1012CF2
:1013000002D061204001F8BD416A102903D018299C
:1013100001D0202905D1012C05D00169491E1029D1
:1013200001D31E48F8BDC2600179F923194001714B
:10133000012C20D000210B468D002D18491C6B611B
:101340000429F9DB002113E0CB179B0F5B189F08E2
:10135000BF003D182E4614360096CF1B565CFF008A
:1013600018236D69DF1BBE403543009E491C356064
:1013700003698B42E8DC0179C9070CD161468160C1
:101380007146C90701D0032C05D10146426A2831B4
:101390006046FFF7DFFE0020F8BD00001F0C0000D4
:1013A00010B50A200CF0B6FB002802D102A0FEF70F
:1013B00043FF002010BD000041545F44656C65741C
:1013C0005F414456204F4B0010B506480521008868
:1013D0000EF04FFD002802D103A0FEF72DFF0020E4
:1013E00010BD0000F002002041542B41545F4469BD
:1013F00073636F6E6E6563743D4F4B0D0A000000A2
:1014000070B509A0FEF718FF00240A4D06E0281960
:10141000017909A0FEF710FF641CE4B2281DFFF754
:1014200095F8A042F3D870BD626C655F6E616D6522
:101430003A200000202000202563000010B5084C51
:101440002068C00703D007A0FEF7F6FE05E005F010
:101450008BFF2068032108432060002010BD00009E
:10146000FC0200206572726F72A3BA434F4E4E4564
:10147000545F5265706561740000000008B507484C
:101480006A46012100880FF041F9002804D168461E
:10149000017803A0FEF7D0FE002008BDF002002076
:1014A0007472616E736D69745F706F7765725F6C73
:1014B0006576656C3A256400FFB583B000250E465D
:1014C00001240C9F26E0F168A01D0918022268463D
:1014D00006F02BF86846008803F090F9010020D050
:1014E00068460A8D0088824212D001AA0BF0F4F8F7
:1014F00001280DD101992620405C400708D50698A7
:101500006A00101802221C3106F00FF86D1CADB2F3
:10151000A41CA4B2304604F0D7FA401EA042D2DC8C
:101520003D8007B0F0BDFFB583B000200F9E009056
:10153000304603F063F9050022D00D980C3001907D
:10154000288DB04213D31099884210D82946022220
:101550002A31019805F0E9FF10220E990D9805F047
:10156000E0FF002809D0298D1098814208D02F462D
:101570002C6A2037BC423ED13FE00C98002101800C
:1015800007B0F0BDA08BB04234D310998842F7D891
:10159000204620300290C078012808D0204608302C
:1015A00010220E9905F0BDFF002808D022E0214648
:1015B00002220831019805F0B8FF0D98F0E7029873
:1015C0008079400716D50098002801D1E08B009063
:1015D000E18B8142D4D10C98022200884100069808
:1015E000081821461C3105F0A0FF0C980C990088C2
:1015F000401C08802468BC42C4D103982D68083080
:101600008542BDD0298D1098814299D9B8E770B52F
:101610000C460546C968C068212205F086FF60892E
:101620006881207C287420892881002070BDFFB546
:101630001E46134681B06A4619B200F069F81B27AE
:10164000054600281FD01AE00A9800281ED06946D7
:101650000020085E391A8CB2B1B28C4200D30C461D
:10166000E968801C08182246029905F05EFF02987E
:1016700069460019361B0290002008806D69002E13
:1016800014D0002DE0D1412005B0F0BD6A46002005
:101690006989105E091A8CB2B1B28C4200D30C4633
:1016A000E968801C091822460298DEE70020EBE773
:1016B000F8B5074611480121006889024018104D0D
:1016C000046AA97F3A4620680BF015F80026002826
:1016D00004D006804068022106F092F9002008E05C
:1016E0006268C100535ABB4201D151180E80401CA0
:1016F000C0B2A97F8142F3D80020F8BDB00300201A
:101700003C26002000E0084641690029FBD17047D3
:1017100006E0002807D01B2904DB1B39406909B209
:101720000029F6DC1180704770B50A480121006875
:1017300089024018084D046AA87F0021C200206871
:1017400005F0F7FEA87F0021C200606805F0F1FEF9
:10175000002070BDB00300203C26002070B590250D
:1017600004460122114628460CF01EF9010003D060
:1017700028464C600CF004F970BD000010B5104A0A
:1017800001211268A0321278D20714D000F01AF8A2
:1017900010BD002901D0202100E01021017400219A
:1017A0004469416100F00EF8002801D0412010BDCD
:1017B0002000F2D101E00028EBD1002010BD000094
:1017C000B003002010B505F01FF9452801D04120D5
:1017D00010BD10F00DF9002010BD70B59025044625
:1017E0000122002128460CF0DFF8010003D0284632
:1017F0004C600CF0C5F870BDF0B52BA00FC893B0CD
:1018000006AC0FC42CA00FC80FC42FA00FC80FC464
:10181000102206A9304805F088FE304C062301222C
:101820002D49022000940CF002FB00282FD12A48F9
:1018300010220AA9103005F078FE10260027A01CFF
:101840000125254A00960396029701970495059075
:1018500014231032022120880CF0CAFA002816D175
:101860001D4810220EA9103005F05FFE201D0590C6
:101870000C20194A029503960495019700901423B1
:101880001032022120880CF0B3FA002805D014A0F1
:10189000FEF7D2FC472013B0F0BDA288618819A0E2
:1018A000FEF7CAFC0020F6E7669A0C200008969E18
:1018B000E2119EB1E0F273D9669A0C200008969E60
:1018C000E2119EB1E1F273D9669A0C200008969E4F
:1018D000E2119EB1E2F273D9AC1D0020F0020020AB
:1018E0004572726F72207768696C65206164646903
:1018F0006E67204368617420736572766963652E34
:101900000A0000004368617420536572766963655C
:101910002061646465642E0A545820436861722013
:1019200048616E646C6520253034582C2052582054
:10193000436861722048616E646C652025303458BC
:101940000A00000070B501210024154E23460DE069
:10195000202A08D0002908D0142C0EDAA1007050DB
:101960000021641C01E003700121401C0278002A60
:10197000EED1002C0CD00B4D07E0012070BD30687B
:10198000FEF77CFE002805D00C3529680029F6D129
:10199000022070BD6A6802492046904770BD000071
:1019A000CC1F00200003002070B509A0FEF744FC06
:1019B0000A4D06242819C17E09A0FEF73DFC641ECD
:1019C0002406240EF6D107A0FEF736FC002070BDD9
:1019D00041745F4D61633A20000000002020002028
:1019E00025783A000D0A000010B503A104A0FEF707
:1019F00023FC002010BD0000312E302E30000000EE
:101A000041542B56455253494F4E3D25730D0A0004
:101A100010B504A0FEF710FC06A0FEF70DFC002098
:101A200010BD0000746869732069732068656C706C
:101A30000D0A000041542B48656C70206973204FDB
:101A40004B200A00BFF34F8F03490248C860BFF321
:101A50004F8FFEE70400FA0500ED00E07FB5054674
:101A6000684600890C4600281DD0E1680C2088716A
:101A7000E068022202A9C01D05F057FDE0680222BD
:101A800003A9093005F051FD05220121204605F08A
:101A9000E5FF2121E86889010843E8600D20A8726C
:101AA000002004B070BD4220FBE77FB505466846C4
:101AB00000890C9E0C46002816D069468989884208
:101AC00012D8E16808208871E068022202A9C01DCE
:101AD00005F02BFDE068022203A9093005F025FD81
:101AE000012E04D0022E0AD0422004B070BDE0685E
:101AF000022208A90B3005F018FD072206E008AB0A
:101B000010220921204605F0D7FF15220121204689
:101B100005F0A4FF2121E86889010843E860092055
:101B2000A8720020E1E7000070B50E460E49154688
:101B30008A88521C904209D1002404E0295D0BA040
:101B4000FEF77AFB641CB442F8DB70BD4988891C3F
:101B50008842FAD128780128F7D105480168042283
:101B60001143016070BD0000F002002025630000F9
:101B7000FC020020F8B50AF059FF1F4C032520682D
:101B80002D024119097B002909D1A0300078C00736
:101B90002BD00EF07DF800F0ABFD00F069FF00F0F7
:101BA0003FF920680146203140308A7E40788243E8
:101BB0001AD1087E002817D1104F3888000713D596
:101BC0000920C0060669FA200FF0E4FB797AC90003
:101BD000401821684919896F891B09020912884236
:101BE00002DA00200FF046FDF8BD02F007F902F01E
:101BF0007DFE0AF0E9F8CEE7B0030020C000002027
:101C000010B50446094800F041F8010003D008A0CF
:101C1000FEF712FBFEE7204600F0ECF9010003D0CE
:101C200010A0FEF709FBFEE710BD0000D03D051037
:101C30004572726F7220696E20426C75654E524714
:101C40005F537461636B5F496E697469616C697A33
:101C50006174696F6E2829203078253032780D0A3A
:101C600000000000434841545F446576696365495C
:101C70006E697428292D2D3E204661696C656420AB
:101C80003078253032780D0A0000000010B5C17F91
:101C90000024002901D011240CE00146342206481A
:101CA00005F043FC00F08AF8002801DA072401E07F
:101CB0000BF04CFB204610BD3C26002070B50F48B1
:101CC0000F4D827F2868A8210A5401460024603104
:101CD0000C754C758C75E122CA7580220A76022239
:101CE0004A76302220310A774C7712228A779F3049
:101CF0000DF076FF2868A030047070BD3C260020EF
:101D0000B003002070B50AF077FE04F075FD1E4E9A
:101D10000122316892021B4D8918C9696878887060
:101D200005F000FEFFF700FD03F054FF2C46203CB9
:101D3000164920683268401881100520C00110182B
:101D40000161616889084161A1688908816109F0C0
:101D50006BFF3068218BFF3081300184618B4184BF
:101D6000A18B4183618C8183297881770021017265
:101D700001F080FE03F082FD03F002FD00F008FF99
:101D800070BD00005C260020B00300200000FCEFC6
:101D900010B509490C694A690321601E08430021F6
:101DA000401C05F0C6FB204600F022FD00F058FE66
:101DB0000FF044FB10BD00003C26002070B5164912
:101DC00003238A8BFF24521E1A438B7F2D346343D7
:101DD000D3180A8B282462439B184A8B3024624311
:101DE0009B180A46203252783C2462439A180B4BC7
:101DF0000020D4184A69C043A2420BD18B22D200E2
:101E0000944207D90D69284600F0F2FC00F028FE44
:101E1000401B201A70BD00003C260020AD130000BE
:101E2000F8B529480268D06D5832401C002815D0FA
:101E3000002426480025C07B00283ED00926F6064F
:101E40002348002C1CD00021224F0B460D4641692F
:101E50005B1CA94204D1002902D003E00124E8E779
:101E6000BB42F3DB11600069506030699168000289
:101E7000090E000A09060143916000F02DF81DE0EB
:101E8000316993680902090A1C0E08D0018BC90741
:101E900012D04169116000695060D57210E0C81A13
:101EA00000027D2400122403A04205D9180E00066A
:101EB0000843906000F010F8F8BD5560002CFBD08E
:101EC00003CA0FF03FFDF8BDB00300205C260020E0
:101ED00000001048881300000449002008610448ED
:101EE000012100686030C170704700000000104898
:101EF000B003002010B506F0F7FF10BD70B5204903
:101F000000230868436503650F2220300275012213
:101F1000184692020C680546A418246C30352354E8
:101F20000C68A418246C63550C683035A418246C14
:101F300063550C68A418256C04469034401C2B553E
:101F40002D28E7DB09688818026C8261144630345A
:101F50004461903202610B480C46423403800922EE
:101F6000427105238371C2710372418100F00CF844
:101F7000FF2020706070A070E0701F20207170BD85
:101F8000B0030020C000002010B5064801680648D4
:101F9000406A002803D020220DF08CFA10BD0020EA
:101FA000087010BDB00300203C260020F8B5069C48
:101FB0001F4615460646002C17D0E0680222C01DB9
:101FC00005F0B3FAE81E82B23B460721204605F031
:101FD00073FD2AB20121204605F040FD012E06D0F6
:101FE0001D20E16888710020F8BD4720F8BD1B2046
:101FF000F7E7000030B5054628A003C887B0059173
:102000000490284A062100200CF050F9040002D068
:10201000014625A038E02348001DC17801200CF0BE
:1020200041F90CF017F8040002D0014627A02BE07C
:102030002FA0FEF701F906AA02A9019200912846F5
:1020400003AB082200210BF083FD040002D00146FF
:102050002FA019E037A0FEF7EFF804A8009068461B
:1020600001890823002280890CF0C9F8040002D0FD
:10207000014638A008E044A0FEF7DEF8FFF7BCFBFD
:10208000040006D001464BA0FEF7D6F8204607B064
:1020900030BD51A0FEF7D0F80020F8E7426C75651E
:1020A0004E5247313C20002053657474696E67209E
:1020B00042445F41444452206661696C65643A2041
:1020C0003078253032780D0A000000004572726FBA
:1020D0007220696E206163695F676174745F696E05
:1020E000697428293A203078253032780D0A0000AA
:1020F0006163695F676174745F696E697428292020
:102100002D2D3E20535543434553530D0A000000E7
:102110004572726F7220696E206163695F676170DA
:102120005F696E69742829203078253032780D0A6D
:10213000000000006163695F6761705F696E6974C8
:102140002829202D2D3E20535543434553530D0A36
:10215000000000004572726F7220696E2047617442
:102160007420557064617465206368617261637482
:10217000657269737469632076616C756520307867
:10218000253032780D0A00006163695F67617474FD
:102190005F7570646174655F636861725F76616CBE
:1021A00075652829202D2D3E205355434345535313
:1021B0000D0A00004572726F7220696E20416464DE
:1021C0005F436861745F5365727669636520307838
:1021D000253032780D0A00004164645F4368617401
:1021E0005F536572766963652829202D2D3E205343
:1021F0005543434553530D0A0000000070B5154682
:1022000006460AF01DFE0446082D0BD1052C09D107
:10221000304609F0B5FF002804D0008A4004800F42
:1022200000D00024204670BD2423184204D0C81FCB
:10223000092803D82032D1710020704761207047EF
:1022400070B50E46054601F073F8040012D0FF2168
:10225000E068413108420DD180040BD4012005F023
:1022600021FB3060002803D02905090D05F01EFC74
:10227000204670BD002070BDF1B5FFB001248BB0C9
:10228000600204900027BD4806970068BA4DFF30F1
:10229000413000908A9809AA0005000D04A909F0B0
:1022A000D9FA0590002839D1042009A9049A8B187D
:1022B000203BDB7F0B2B03D1521E0492401EF5D135
:1022C000002609A88119022201A8039105F02DF921
:1022D0006846818808AB07AA009800F02DFE012807
:1022E0001FD0022873D068468088854200D30546F7
:1022F000844200D92046044603988078012867D09C
:1023000013360498864200D301270498811B0429C0
:1023100001D38642D5D3A5427CD905987FB00CB0B5
:10232000F0BD07980290002FEFD1029902222831C8
:10233000039805F0F6F800281ED102982030017BA2
:1023400003988078814217D1012808D10298039917
:1023500002220830C91C05F0E4F8002814D00398C4
:102360008078022808D10298039910220830C91CED
:1023700005F0D7F8002807D00298008DA84200D8B1
:102380000546A04200D30446039909A8897801298B
:1023900005D0133604998E4203D3012706E0761D3B
:1023A000F8E78119022201A805F0BFF80098029B06
:1023B000083086462BE09C466846196A828820339E
:1023C00010E0888B904206D3012F02D079E722E0FB
:1023D000C0E09042FAD9A84200D80546A04200D3F6
:1023E000044609689942ECD16046036873450ED0F3
:1023F000188D904203D3012F09D1904207D9A842EA
:1024000000D80546A04200D30446012FDED1734513
:10241000D1D17AE7A9E007980290002FF9D102996B
:1024200002221C31039805F07CF800281ED1029886
:102430002030C17803988078814217D1012808D1D3
:102440000298039902220830C91C05F06AF8002896
:1024500019D003988078022808D102980399102295
:102460000830C91C05F05DF800280CD00298808B5C
:10247000A84200D80546A04200D3044603988078BD
:10248000012823D003E003988078012804D0133674
:10249000069801281CD01EE002983949008988421C
:1024A00014D18A9800F044FF0146029800F062FDC2
:1024B00002990222098C48430299896940180399BC
:1024C000491D05F032F801200690D7E7761DDFE7B9
:1024D0000020B61C06900498864201D3012705E02F
:1024E00009A88119022201A805F01FF80298089B8B
:1024F000016800980830844629E09E466846828834
:1025000020330EE0888B904204D3012F00D0D8E610
:102510009042FCD9A84200D80546A04200D3044608
:1025200009689942EED17046036863450FD0188D53
:10253000196A904203D3012F09D1904207D9A842CA
:1025400000D80546A04200D30446012FDFD16345E1
:10255000D3D1DAE60398C078022804D10398007931
:10256000292800D1B61C761DCBE6224629468A983A
:1025700003F064FA0590D1E6FFFF0000B0030020ED
:102580000229000070B515460C46064609F0E1FD2B
:1025900020346179012D0AD00A0702D54207920F33
:1025A0001DD0CA061DD502071BD4082070BDCA075E
:1025B00002D04207920F12D08A0701D50207F4D544
:1025C000490707D5C00725D0E179304609F04CFD11
:1025D000652821D02079C0071AD1022070BD0520BE
:1025E00070BD890607D5C00714D0E179304609F0DF
:1025F0003BFD652810D02079810701D4022D0DD034
:10260000410701D4042D09D0000701D4082D05D0BD
:10261000002070BD0F2070BD0C2070BD032070BD68
:102620001CB50024694601200AF076F8012832D151
:1026300001AA022000990AF04FF801282BD1019835
:10264000816909788906890F25D00068016800989A
:1026500020301EE00A89114B9A4203D123235B5C90
:10266000012B18D00D4BFF339A4211D12322525C1B
:10267000012A0DD18A69537812781B02D21892B2BE
:10268000D30701D0641CE4B2920701D5641CE4B204
:1026900009688142DED120461CBD000003280000ED
:1026A00010B50446406803F00FFA001D6188C0B2FF
:1026B000814201D9472010BD814201D1002010BDC7
:1026C000412010BD10B5084806494161074907235C
:1026D000CA691202120A44042243CA6100218161BC
:1026E000036110BDFE7C000000E000E004ED00E0AE
:1026F00010B505F037FF04F0AFFF10BD70470021A3
:1027000001E000BF491C8142FBDB7047F3B587B095
:1027100004461C222AA16846FDF772FD0921012307
:102720002E4AC906002C32D044206D46A8732C488E
:10273000057A1D4305725B206D4628754C20E872B2
:1027400020202872B2206874264DA86A264E070CF5
:10275000B74204D14007400E6F460B30F875686AE7
:10276000050CB5420AD16E467579CF2635406E46C6
:10277000757175798007800E05437571684601256E
:1027800080B22D044019C860C868C003FCD4108B07
:102790000028FCD013831720908100201061089836
:1027A000002806D00869102210400B6913408342AC
:1027B000FBD0002C02D00D491520087009B0F0BDE7
:1027C000023F00023E30023C20023B4C023A4002F3
:1027D00039B202345B02350B0000000000001048E3
:1027E00000002040C007001055AA00000000C040B3
:1027F000F1B582B08B22D200012102A804F01EFEA6
:10280000954C04222060432102A804F017FE032700
:1028100021683F02C91908610422432102A804F07B
:102820000DFE21680422C9194861FF21843102A8E4
:1028300004F004FE2168894DC9198861A97F0C2222
:1028400002A80B3104F0FAFD01262168B6028919AD
:102850008864A97F202202A804F0F0FD21681022DC
:1028600089198863A97F02A804F0E8FD216828225D
:102870008919C863062102A804F0E0FD216830220E
:1028800089194864052102A804F0D8FD216818229E
:1028900089190864032102A804F0D0FD21682422CC
:1028A00089190863032102A804F0C8FD2168B21049
:1028B00089194863012102A804F0C0FD216838226B
:1028C00089190865A97F02A804F0B8FD21681C22B7
:1028D00089194862A97F02A804F0B0FD2168782216
:1028E00089198862A97F02A804F0A8FD216807223F
:1028F000FF3181310866032102A804F09FFD2168A1
:102900002822FF3181314866012102A804F096FD9A
:102910002168FF318131C866AA8B012102A804F029
:102920008DFD21682822FF3181314861298B02A861
:1029300004F084FD21680822FF318131C860012143
:1029400002A804F07BFD2168082289190862A97F8A
:1029500002A804F073FD216808228919096A086039
:10296000A97F02A804F06AFD21681C228919096A5E
:102970004860012102A804F061FD2168182289192C
:10298000C861284620300090417802A804F056FD26
:10299000216821228919C96948610098417802A8F3
:1029A00004F04CFD216830228919C9698861698B5E
:1029B00002A804F043FD21680422FF31813108613F
:1029C000A97F02A804F03AFD21680222C9194860D3
:1029D000A97F02A804F032FD05212268C90151181F
:1029E000C865A97F042202A804F028FD05212268F9
:1029F000C90151180866A97F012202A804F01EFD32
:102A000005212268C90151184866A97F012202A840
:102A100004F014FD05212268C90151188866A97FB8
:102A2000012202A8491C04F009FD21681022C919DD
:102A300008600B2102A804F001FD21680422FF3187
:102A400001310863802102A804F0F8FC216889198B
:102A5000C8620298FEBD0000B00300203C260020A2
:102A6000704710B5C001000C00F040FA002010BD06
:102A7000FEB572B6444D082328680327014640304E
:102A800042786C461A43427000203F020206920DC3
:102A90005218D219D26952884300401CE2520328CE
:102AA000F4DB62B672B6C81900218668816062B62E
:102AB000F00702D000200DF0B3FAB00702D50120D4
:102AC0000DF0AEFA700702D502200DF0A9FA30071A
:102AD00002D503200DF0A4FA00262DE0E0780C28A2
:102AE00019D22A4980000A58211D20469047A17812
:102AF0008908C9060AD4E178382907D28800234911
:102B0000E0390A58211D2046904704E0002802D0F1
:102B1000432808D031E0029829684018C019C069DC
:102B20002188018008E072B62868F7224030417899
:102B30001140417062B620E0300672006946895A41
:102B4000800D02902A688018C019C0690288920816
:102B500092001418028808348A420ED0A278910795
:102B60000BD09107890F012901D104460834A178BF
:102B700000208908C906BED5B0E7761C032EDBDB32
:102B80000DF03EF8FEBD0000B0030020E43E05104D
:102B900070B50DF04FF8114D032428682402001978
:102BA000006940210CF02CFD29680919C8614869A9
:102BB00040210CF025FD2968091908628869611017
:102BC0000CF01EFD2B680822191948626120C00014
:102BD0000021181804F0ADFC70BD0000B003002007
:102BE000FEB504462A48164605680F46FF350846D6
:102BF000413502F069FF032806D033460022022146
:102C0000042009F0C7FD40E0F968022201A8C91DAF
:102C100004F08BFCE268900528D468468188172967
:102C200003D35C20405B172801D2172002E08142C9
:102C300000D20846A0700120400202430220E26058
:102C40000090134827880068A478FF300130C079CD
:102C5000012240070AD5222100980AF0A5FE0100B2
:102C600004D08F80CC8000980AF08AFEF16803209F
:102C70008871F068294602225C31C01D04F055FCC1
:102C800003220121304604F0E9FE0020FEBD0000D1
:102C9000B0030020F7B5002090B009900D900446D5
:102CA0000490059090480F4605680846FF35413569
:102CB00002F00AFF022815D12846303003900BF0AD
:102CC0009AFB060013D012981921C0680122817165
:102CD0001146129804F0C2FEF868C079002872D03C
:102CE00001280BD0002218210420129B03E00022AF
:102CF0001821FF20129B09F04DFDF2E02F6BD5E06B
:102D00000897F968022207A8C91D04F00EFC109864
:102D1000089F008839890005000D814203D0099879
:102D2000401C099007E004980028684605D0818B74
:102D3000049881421CD03F6883E0808B049001F0AE
:102D40005DFD01000FD005AA049809F0C5FC01281B
:102D500009D110980222008805990005000D0AF09B
:102D60006FF8002804D018210E20129B049A3CE032
:102D700008980222C16802A8093104F0D6FB08981D
:102D800002F0A2FE401F80B2009005982221095C4B
:102D9000002906D001290BD0002915D0012919D00E
:102DA00027E0C18B6A461289491E914206DB0BE07F
:102DB000018C6A461289491E91420BDA18210720BC
:102DC000129B049A11E012E06A4612890099891850
:102DD000C28B04E06A46128900998918028C9142DC
:102DE00007D918210D20129B049A09F0D3FC2C6BF3
:102DF00074E0109900F0BEF80E900598028C81697D
:102E00000E984243881869460989009A4318092197
:102E1000089804F0EEFC05982221095C012904D1F0
:102E200069460A8900995118C1830D98401C0D907C
:102E30003F68089903980BF011FB0221089804F0F1
:102E4000DFFD0398874231D10598002829D0203032
:102E50008079C00721D124E00A1B93B2F62B00D958
:102E6000F623E2180A928A4205D201222146D203B1
:102E700011438C4600E0A446018C0E9A87695143A9
:102E800079180919624600920191828B1098018885
:102E900002200BF003F80A9884B20598C18BA14276
:102EA000DAD800202F6B0490044605900998311A57
:102EB0000D98814200D923E713E010982546008839
:102EC000298900052468000D884207D12946039806
:102ED0000BF0C4FA0221284604F092FD03988442C4
:102EE000EBD1002013B0F0BDB00300204006010C70
:102EF00000B504483F22028181611121018000F068
:102F000013F800BD0000104000B5064A3F231381AE
:102F1000800890610348403001603320108000F049
:102F200003F800BD000010400248018AC907FCD028
:102F30007047000000001040F0B58468083015E0CC
:102F4000258D8D4203D1146018600120F0BD254607
:102F50001C602035266A06E0B78B8F4202D1022022
:102F60001660F0BD3668AE42F6D124688442E7D1DF
:102F70000020F0BD30B5024623239B5C0020012BCE
:102F80001BD112890D4B9A4217D10D4A01231268A9
:102F90009B02D318A0329B6A127A0BE00C8825059D
:102FA0001C2444431C5B2D0D2405240DA54204D094
:102FB000401CC0B28242F1D8002030BD022900007E
:102FC000B0030020F7B588B000200290A3480F4658
:102FD00004680846FF34413402F076FD072804D225
:102FE0000022062104200A9B2DE0F968022201A894
:102FF000C91D04F09AFAF96802226846093104F002
:1030000094FAF968022204A80B3104F08EFA3846CB
:1030100002F05AFDC01F80B2039068468288008883
:1030200082420DD8002A0BD00898012182780A9894
:10303000121D04F0F5FB002808D045200BB0F0BDB0
:10304000062101200A9B09F0A5FB8AE008346846A6
:103050000594808801F0D2FB04007DD06946208D64
:10306000898888421BD369460988884217D86946EF
:10307000608D098A88420DD10398022801D010285A
:1030800008D1034621460B220831384604F082FC61
:10309000002817D06946208D0988884250D068469C
:1030A000008A0521C902884202D0491C88425AD1AF
:1030B00024680598844243D06846218D0088814267
:1030C000CCD93DE00298002805D10A990720C968AB
:1030D000887101200290089881780298081A0428C3
:1030E0002EDB2346029928331E460222091D0A9828
:1030F00004F0E2FC0298216A801CC5B22046203010
:10310000814205D0636A0222291D1C330A9803E01C
:1031100033460222291D0A9804F0CEFCAD1CE8B209
:103120000290089881780298081A042808DB24681D
:103130000598844204D06946208D098888428DD93B
:103140000298002808D0024601210A9804F086FC63
:1031500008980088010500E079E0090D0A9804F05C
:10316000A5FC00206AE72646256A2036B5426BD1C9
:10317000DDE76946A88B8988884264D36946098857
:103180008842DDD82320405D01285CD1284608997B
:10319000FFF7F0FE069069462889098A884252D1D5
:1031A00008980122008829460005000D09F048FE14
:1031B000002848D1E98B0398814244D1288C069994
:1031C000AA69484311180B223846039B04F0E2FB1E
:1031D000002838D10298002805D10A990720C9682B
:1031E000887101200290089881780298081A0428B2
:1031F000A6DB02992B461C330222091D0A9804F013
:103200005BFC02981649801CC0B202902889884253
:1032100007D12868B04204D00089884201D02D68C7
:10322000F7E702992B461C330222091D0A9804F085
:1032300043FC0298801CC0B20290089881780298E2
:10324000081A0428D4DB2D68B54292D16FE768468E
:10325000828806210A200A9BF5E60000B0030020C0
:1032600003280000F7B584B008F0BCFA84B200204F
:1032700069460872054605980068039002F034FA22
:10328000064633E06846017A6D1CFF2934D0FE29DA
:1032900004D0002902D0492007B0F0BD234AA00085
:1032A000801800686B46070A1F70070C5F70000EDD
:1032B0009870641CA0B283009B181C686B46DC707D
:1032C000270A1F71240C5C71401C84B2A000801876
:1032D0000768FE2906D106221846049904F021F950
:1032E00000280BD0B8080019401C84B202A920465F
:1032F00007F07EFEB542C5D35C20CDE70398874238
:1033000001D91F20C8E705980025084E076009E08D
:10331000641CA4B2A000801901680698401909F045
:103320000FF92D1DBD42F3D30020B5E700000410B6
:1033300010B50E4900050B680121890259188A6AE7
:103340000021000DA0331B7A0CE01C244C43145BBD
:103350002405240D844203D11C204143881810BD4C
:10336000491CC9B28B42F0D8002010BDB003002028
:10337000FFB589B0002415461046059402F0A4FB61
:10338000052804D00022042108460C9B21E0E968AE
:10339000022207A8C91D04F0C8F8E968022268469D
:1033A000093104F0C2F86846828B008882420DD849
:1033B000002A0BD00A98012182780C98121D04F083
:1033C0002FFA002808D01F200DB0F0BD04210120E5
:1033D0000C9B09F0DFF9BCE06846808B01F00EFA27
:1033E000060073D06946308D898B884233D3694695
:1033F000098888422FD8002C0AD101200C99059009
:10340000C968052088710C990598C9680224C8719B
:103410000A988078001B04287EDB059801287BD160
:103420000C980222C168A01D08183146283104F00A
:103430007CF80C98A41CE4B2C168A01D08183146A1
:1034400002222A3104F071F86946A41C308D0988E3
:10345000E4B288426FD03746356A2037BD4262D128
:1034600063E06946A88B898B88425BD369460988EB
:10347000884260D8002C35D02320415D05988142D8
:103480005BD10A988078001B042802DB059901298A
:1034900004D0122851DB059802284ED10C98022244
:1034A000C168A01D081829461C3104F03EF8A41C70
:1034B0000598E4B201280AD02B4608331022211DBA
:1034C0000C9804F0F9FA1034E4B22BE04DE00C98BB
:1034D0000222C168A01D08182946083104F025F809
:1034E000A41CF1E72320405D0C990590C9680520D4
:1034F00088710C990598C9680222C8710C982946F0
:10350000C0681C31083004F010F80598012822D05A
:103510002B460833102200E00DE008210C9804F03F
:10352000CBFA14242D68BD429BD109983668083027
:10353000864200D056E7002C17D0224601210C9875
:1035400004F08CFA0A9800880105090D0C9804F023
:10355000ADFA002038E70C982946C06802220831ED
:103560000A3003F0E2FF0624DCE76846828B042180
:103570000A200C9B2DE7000030B50C490246096873
:1035800003231B0212050020120DCB18A031097A6B
:1035900009E05C688500641924882405240D9442A0
:1035A00003D0401CC0B28142F3D830BDB00300202C
:1035B00030B502460B48032300681B020021C318E4
:1035C000A030047A09E058688D00401905882D055F
:1035D0002D0D954204D0491CC9B28C42F3D800206D
:1035E00030BD0000B0030020830810B50B48002157
:1035F0000268012080021018A032806A127A08E066
:103600001C244C43045B002C01D0994204D0491C7B
:10361000C9B28A42F4D8002010BD0000B0030020D7
:10362000F7B598B016465E2508F0AAFD040057D0FD
:10363000E07BC00723D06D20005D810903291ED0E7
:1036400081091CD0400617D5264805210068C9010C
:103650004018008A694685B200200870284607F0A5
:10366000C7FC08AF0237683468460078FE280AD0E5
:10367000FF2801D0002812D047201BB0F0BD062241
:103680002146683117E001A9284607F05DFD0028B2
:1036900005D13946204608F0FFFE002808D002F088
:1036A00025F8401985B26946284607F0A1FCDBE7FA
:1036B000062210A9023115A803F037FF324615A8DB
:1036C000199909F0F3FB05465D2809D172B607F098
:1036D00087FE62B6324615A8199909F0E7FB054640
:1036E0002846CAE7B003002070B50C460B4E810097
:1036F0000B4832680D1801232032537621462846A4
:10370000FFF702FC28680021844201D1084600E04E
:103710004A2032682032517670BD0000B00300208C
:103720000000041038B516490C682146B631AA3499
:10373000A278D20703D0E27880231A43E270A278FD
:1037400052071BD52279520705D5E27A002A02D109
:103750000122E272488020794106090F0ED07821BB
:10376000084069460870002048706A4602214220DD
:103770000AF0DCFA207987210840207138BD00006A
:10378000B003002070B592B00646202221A101A806
:10379000FCF736FD202109A8FCF76DFF0A216846D9
:1037A000017000242546694601A802F067FF6846BB
:1037B000027801A909A803F0B8FE01A824E0015D80
:1037C000491CC9B2914223D803195B78B34214D182
:1037D0006B461A78521A6118C9B24118D2B209A8B8
:1037E0001A70401903F0A1FE6B4618782818C1B270
:1037F00009A803F037F912B070BD521A6B461A705F
:1038000062186918D4B2CDB269460A78002AD6D1B6
:103810001F20F0E702FF0102010403028FFC0000F9
:103820000000000000000000000000000000000098
:103830000000000038B51048002104680846AA348A
:1038400002F08AFD694648702079C10704D0012141
:103850006A46117088432071C0B2810705D50221E4
:103860006A461170FD210840207102216A4608460F
:103870000AF05CFA38BD0000B0030020FFB50C462A
:1038800076A003C895B0019100900321C902684653
:10389000C185012108A8734E017335681746AA3502
:1038A00002F036F8002808D13068FF300B3001F004
:1038B00025FFA878002802D00C2019B0F0BD15987B
:1038C00007220607360F012C05D0022C06D0002C4B
:1038D00017D04220F1E71020064312E0E1208000DB
:1038E00003F06CF860A103C91290139112A80CF0B8
:1038F000D7FE012003F0B2F800287DD12020064336
:10390000092201230BA9284600F086FE0028F4D1E5
:1039100002222946189803F008FE2988684601818A
:103920001521490281818783012181724E2282778C
:103930000024C47708A8017007224270817002A990
:103940000AA800F029FC002856D102220AA91E98D4
:1039500003F0EBFD082F02D26846C78402E008207E
:103960006946C88469468C840B46288809AA098D53
:1039700001F0B8FC00286BD13D49684681810227DF
:10398000878308A8847002A90AA800F005FC002813
:103990005ED102220AA91F9803F0C7FD6846047091
:1039A0004470C7846B46288809AA198D01F09AFCD7
:1039B00000284DD1F00725D02D496846C91C8181CA
:1039C00008218183877708A8047002A90AA800F05B
:1039D000E3FB00283CD1FF216846C1718171C170B1
:1039E0008170417001704471047169460820C88477
:1039F00028880B4609AA00E02AE0098D01F072FC34
:103A0000002825D1B00625D52988684601811849A6
:103A1000A53181810121818381728777C47708A8CC
:103A2000047007214170847002A90AA800F0B4FB59
:103A300000280DD16846012101708484C1842C883E
:103A40000346018D09AA204601F04CFC002801D054
:103A5000472032E7AE7000202FE70000626C7565EA
:103A60006E726721B00300201F02000000000000FA
:103A7000012A0000034800210068AA30C17081704B
:103A800070470000B003002070B50C4B1C68AA34CE
:103A90002379DD0611D45B070FD531280DD1E07AEB
:103AA00002280AD1042010700020507002200AF071
:103AB0003DF92079FB210840207170BDB003002042
:103AC000024610B5144801240068AA30022A19D011
:103AD000052A03D0072A05D00A2A1AD14888FFF7F9
:103AE00021FE16E000790024020600D50124820799
:103AF00003D1C20601D480060BD5084600F070F849
:103B0000044606E08178490703D50179FB2211407C
:103B10000171204610BD0000B003002010B5094817
:103B20000468AA34E07880070BD5002002F02EFB51
:103B300002200AF047F8E07801210843FD210840FF
:103B4000E07010BDB00300200FB470B5099D0128CE
:103B500042D16846848A2148844210D105AC0FCCFA
:103B600000F0DEF9002832D107F048FE492833D0B2
:103B7000012831D92878F321084028702CE0174813
:103B8000401C844205D105AD0FCD00F0C9F90028D5
:103B90001DD115204002844205D105AD0FCD00F0A6
:103BA000BFF9002813D10D48401E844205D105AD50
:103BB0000FCD00F0B5F9002809D10848801C8442D7
:103BC0000AD105AC0FCC00F0ABF9002804D0662078
:103BD00070BC08BC04B018470020F9E7022A0000B6
:103BE00008B500216A461170694609F0F9FB08BD65
:103BF000FFB507468FB0002004906D480D4604685D
:103C00001E46AA34A178C80602D5E078C00679D449
:103C1000880607D5E0788006800F03D0022F01D0F8
:103C2000002E6FD08806800F06D0022F08D0032FF9
:103C300006D0002E66D003E0012F01D0002FF8D16E
:103C4000880603D4002D01D0012D5BD1002E06D1B2
:103C500030200140384602F051F9002852D1119924
:103C600000200870A0788006800F7DD00DA909A8DB
:103C700002F0E4FC08900EA90BA802F09DFD07904D
:103C80000898002802D00798002801D1012E51D1B0
:103C9000022F05A807D001F0DBFC002E35D00898D4
:103CA000002803D011E008F02DFAF6E7404F062275
:103CB000386809A9FF300B3003F033FC002838685E
:103CC000416D06D04908490041650798002803D096
:103CD00011E001221143F7E7354F062238680BA99E
:103CE000FF300B3003F01DFC022100283868426DC4
:103CF00009D08A4342650898002806D00798002812
:103D000003D017E040E00A43F4E7294806220068A0
:103D100005A9FF300B3003F008FC05206946087345
:103D2000002E02D1084608F06DFF22480290684636
:103D300008F01EFFA07880060FD5119803210170AE
:103D40002079C10603D5002D01D0022D1CD180069B
:103D500003D5012D01D0032D16D1A078C00625D59D
:103D600011990120087000E011E02079C10601D509
:103D7000002D09D1810601D5012D05D1000615D5EB
:103D8000002D13D0012D11D0422013B0F0BD012F12
:103D90000CD1002E0AD1064806220068611DFF30B2
:103DA0000B3003F0C2FB1199012008700498ECE776
:103DB000B0030020A0BB0D003EB50BF04DFC044647
:103DC0000BF0E2FC002C01DA002813DB0A48062283
:103DD00001686846FF310B3103F0A7FB6846407964
:103DE000400601D5022000E00320012302AA0021A1
:103DF000FFF7FEFE3EBD0000B003002030B51948BD
:103E00008BB000680446AA340546E078B635010652
:103E100012D5A178C9070CD0800708D504206946BF
:103E20000873684608F0EEFE022009F0CBFE002081
:103E3000E0704006400EE070207940070FD5E07A30
:103E400001280CD1152149026846C1820121017562
:103E5000688805AB044A00F0F9FD0220E0720BB05F
:103E600030BD0000B0030020FFFF0000F0B58DB0B2
:103E70000C4616A9E0C90021089109910A910B91FD
:103E80001599049105A9E0C112A962C90093019195
:103E900013460146039602952246012009F02EFBA7
:103EA0000DB0F0BD0949AE2209681423525CB63149
:103EB0001A4208D0498800050905090D000D814204
:103EC00001D101207047002070470000B00300209E
:103ED000C2688A43C260704710B50446022000F0F1
:103EE0003DF80E4801210068890241188A6A0021C4
:103EF000A030007A06E01C234B43D35A002B04D099
:103F0000491CC9B28842F6D810BD1C204143545206
:103F10008818042100F02CF810BD0000B003002028
:103F20001FB582B0002401F0D7FB694608F0F4FB0E
:103F300000986A46016A1289203009E023235B5CFD
:103F4000012B04D10B89934201D1641CE4B20968AE
:103F50008142F3D1204606B010BD00000349096834
:103F6000FF3181310A7A02430A727047B0030020A0
:103F7000C2680A43C260704700B51138C0B2FFF78B
:103F800033FB002804D00122C16852051143C160EF
:103F900000BD704770B5027901239B070168002AB4
:103FA00002D0062A03D007E05A688A4303E00022C1
:103FB00002715A680A435A6000210F260268CA40FB
:103FC000D207D20F19D0082909D2DC6A8A003546F7
:103FD0009540AC43057995402C43DC620DE00A46E0
:103FE000083A082A09D28A003546203A1C6B9540C7
:103FF000AC43057995402C431C63491CC9B21A296E
:10400000DCD341790129D968026809D09143D9608C
:10401000817901299968006804D08143996070BD55
:104020001143F4E70143F9E703480068AA308078B8
:104030008006800F70470000B0030020F3B599B0F0
:1040400008880A90081D1DC84E880DAD1DC58C8AB4
:10405000CD8A087E1890C8692031039008780290B4
:104060004878079088780690C87805900F7900F016
:1040700097FD002817D10120400284425DD8AC4250
:104080005BD8002F01D1AC4257D113A90A9808F090
:1040900043FB012806D117AA3046139908F01CFBF0
:1040A000012802D060201BB0F0BD139E14A9304639
:1040B000183003F0D1F8149800280FD0304616A914
:1040C000203003F0C9F8169B149A308D716AD2180B
:1040D00080188A8B904203D16220E4E71F20E2E738
:1040E00017982C4B02899A4227D12322125C012A6D
:1040F00023D1006800681590189801281FD16846E0
:10410000808E29221202801A030009F09BF906040E
:10411000180404070A18022C0FD110E0072C0CD148
:104120000DE0042C09D3E00707D1012F07D1A542E8
:1041300003D3042D01D3E80701D06120B3E7069B28
:104140000598079A0B900C970992039A02980A9384
:1041500008900695059407920DA81DC8019002A825
:104160001CC018980B46009032461599199800F01B
:10417000ABF9002897D168460649808EFF31884206
:1041800005D01998018800200A4601F057FC00204C
:1041900089E7000003280000F3B5A5B008881A904D
:1041A00088780C460E901022091D10A8FCF7F6F92D
:1041B000A08A0D90A17D68460172E07D1490207E5A
:1041C0002090677EA07E1F900020064601460F903B
:1041D00020A801810F20B94C23902068FF30413086
:1041E000199000F0DDFC00280BD101210D98490247
:1041F00088425CD821A91A9808F08EFA012802D0CA
:10420000602027B0F0BD2198169001F065FA1A9948
:1042100088420CD102A801901398009010AD0ECDE9
:104220000E98FFF791FC002801D06620E9E7684668
:10423000017A8806800F05D001200F902068A030F9
:10424000007A4600C80703D00F98401CB61C0F9098
:10425000080603D50F98401CB61C0F90169815A998
:1042600018301D9002F0F8FF0F9C1598A41CA04276
:1042700035D3169818A920301C9002F0EDFF18993C
:1042800000290CD01698169A406A159B128D591861
:10429000808B5118081AA04201D26220B1E716980B
:1042A00084690E982568012803D0022803D0612074
:1042B000A7E7052000E01320E0832A46394614983A
:1042C000FDF7B2FF61289CD0199FE28B4037788BB5
:1042D000398B411A0D9810188019814201DA1F207C
:1042E0008FE718A91C9802F0B7FF189800281698B5
:1042F00002D0406A808B00E0008D2599401C088028
:10430000259801210088A083259802220088401C5E
:10431000A8836B482081204620301690C170002170
:10432000817081711998398B406D40186946A06180
:10433000097A0170A06929461C31401C03F0F5F888
:104340000E980128A0697DD0102210A9C01C03F08E
:10435000ECF82846102210A9083003F0E6F8388B54
:10436000133038832E4620360E98F0700D98E8836F
:104370001F98B0700D9820840D9828841998398B57
:10438000406D4018A86100210D9A03F0D2F8398BD6
:104390000D98081838831699012008711699002085
:1043A000487130716846007A810701D50121317169
:1043B00001070227002902DA3179394331714107B7
:1043C00003D53179042211433171400603D5307988
:1043D000082108433071149870712098B0712146FB
:1043E0001D9802F068FF21461C9802F045FF2946FF
:1043F0001D9802F060FF29461C9802F03DFF0F98BF
:10440000002841D068461A998181A18BC181078417
:104410004784012408A8047122A80A9008A884737C
:104420002399417314993820014008A8017307218A
:10443000C173002505746846007AC00708D021487A
:10444000694600E02BE0088203A924A8FFF7F6FDE7
:104450006846007A8006800F07D01A486946401ED9
:10446000088203A924A8FFF7E9FD6846007A000640
:104470000AD5292109026846018208A844730573F8
:1044800003A924A8FFF7DAFD259801880F98401C9E
:10449000081882B2002001F0D1FA0020B1E6022211
:1044A00010A9C01C03F041F82846022210A90830C8
:1044B00003F03BF8388B401D53E70000B0030020A9
:1044C0000328000003290000FFB5514887B00368A6
:1044D00010AA1846FF3041300590109801264D4F24
:1044E0009288012803D1BA4201D1A0331E7A059DDA
:1044F00034464035688B2B8BC31A16984443099871
:1045000020300390A34220DA1F200BB0F0BD2320FF
:10451000405C012817D108896F46388098420CD03A
:104520003C4F7F1EB84208D07F1CB84205D07F1C8C
:10453000B84202D0BF1CB84205D1A04201D090427F
:1045400001D16320E1E7096803E02923314C1B0214
:10455000FF3C03988142DAD109981B998469189825
:104560002246FDF761FE6128CFD01C98012805D1B5
:1045700016991598814201D26120C6E71598E0830B
:10458000274620371C98B870169820840A98808B8C
:10459000401CA0831098012813D02046102211A996
:1045A000083002F0C2FF1098F8700598298B406D12
:1045B0004018A0611698298B70430818288300259D
:1045C0000FE011A80FC808340FC4183CEBE7169889
:1045D000A16968430818159A179902F0A6FF6D1C87
:1045E000EDB2B542F3D318987871199838711A98CA
:1045F000B87109982146183002F05DFE21460398F3
:1046000002F03AFE0798A18B018000207DE70000B0
:10461000B003002002290000FFB58FB00F781022F0
:1046200005A8891CFBF7BAFF4C480568FF354135E2
:1046300000F0B6FA00281FD11198002855D0012F9C
:1046400009D16846808A4649884204D12846A9682B
:104650000830814249D12846103029690A908142A8
:1046600009D00BA9284602F0F7FD11980B99401EBE
:104670000D90814202D21F2013B0F0BD28460830B1
:104680000CA9099002F0E8FD0C98002812D0EC6803
:104690000BA92046183002F0DFFD20460CA920307F
:1046A00002F0DAFD208D0B9941180C98401C081877
:1046B00086B200E0012601200004811B119881428E
:1046C00001D26220D8E72C6928680490129801284A
:1046D00002D0022803D008E00520C00200E02148F3
:1046E0006085012F03D0022F03D06120C4E702228E
:1046F00000E01022204605A9083002F016FF2046EF
:104700002030039007730F982146068026850A986B
:1047100002F0D1FD2146099802F0AEFD264618367A
:10472000E661A661039860622062119C09E0284658
:10473000049902F0C0FD3046049902F09DFD2868FE
:104740000490641EF3D10F9801880D98081882B266
:10475000002001F073F900208EE70000B003002074
:104760000118000001280000FFB583B01E4617465F
:104770000C46084601F0A8F90546E0688079012852
:1047800002D0002007B0F0BD204601F09DF901469F
:104790004120052901D030701AE0E168897A0A29A0
:1047A00000D03070002F0DD0E16805226846891DC9
:1047B00002F0BBFE6D1E00AAE9B230200132FFF705
:1047C00063F905E0039822460188022009F0FCFB0A
:1047D0004120D7E7024608480168FF31493108689F
:1047E00003E0038D934202D200688842F9D18842E7
:1047F00000D1002070470000B0030020024610B531
:104800000E480168FF314931086803E01C8D94426D
:1048100003D8184603688B42F8D18B420CD1018D26
:10482000914209D20146036A20318B4203D0416A8A
:10483000898B914200D2002010BD0000B0030020FF
:10484000034610B50B481B050168012080020818BB
:10485000826A00201B0DA031097A08E01C24444321
:10486000145B2405240D9C4203D0401CC0B281423D
:10487000F4D810BDB0030020FEB506461A48006803
:10488000FF304130012906D0022906D0032908D083
:1048900004290BD107E0183000E03030044602252F
:1048A00004E02430FAE704463C340125204609F0B0
:1048B000A2FD0746206800903005000D019010E031
:1048C000009E002F01D0306800903189019881420C
:1048D00007D13146204609F0C1FD2946304603F094
:1048E0008FF87F1EECD2FEBDB0030020F0B589B07A
:1048F0000025554E029530680446FF34413472B6A7
:10490000014640314A7802231A434A7062B6FF21B9
:104910008931095CC9077DD0012189024018876A65
:1049200044E029461C2251437A5A002A3CD0C91936
:104930000791C9684A0219D48A0221D5022100913F
:104940000799FF30098801300905090D0491C079E4
:10495000012280070AD52121009809F025F80100DD
:1049600004D0049A8A80009809F00AF80798008811
:104970000090079800F0B4F8009807F047F913E0AA
:10498000480711D5079800880005000D07F00AF9BF
:10499000002805D1079800880005000DFDF76CFC84
:1049A00004210798FFF794FA6D1CEDB23068A82136
:1049B000095CA942B5D804F08FF92046243009F0EB
:1049C00045FD012802D0012004F072F8204618307D
:1049D000054609F03BFD012802D0002004F068F8EC
:1049E0003C34204609F032FD01280DD002A92046B2
:1049F00009F044FD0420029901F05AF90028F0D092
:104A00002046029909F012FD204609F01FFD0128F9
:104A100018D100E016E0284609F018FD012811D150
:104A2000316880020818826A0020A031097A07E004
:104A30001C2343439B189B895B0503D4401CC0B2D5
:104A40008142F5D809B0F0BDB0030020FFB58BB0AE
:104A5000074646241D781022991C06A8FBF79EFDE8
:104A60001A4805A906683846FF364136FDF7E8FBC7
:104A7000070029D00599002925D0012D04D0022D49
:104A800002D042200FB0F0BD049506A81DC80090CA
:104A900001A81CC038460D9B0C9AFDF706F80400CF
:104AA00004D00121059802F0ABFF0DE0012149037C
:104AB0003846FFF75DFA0648786130463C30059984
:104AC00009F0B4FC00E01F242046DBE7B00300201F
:104AD000D54A041010B5502100F030FB10BD000085
:104AE000F0B50446808985B0800415D52B48412552
:104AF00000680227FF300130407A26880122C00773
:104B00000AD02F21384608F04FFF010004D08E80D4
:104B10008D71384608F034FF20880121FFF7ACFE84
:104B200020880221FFF7A8FE20880321FFF7A4FEBA
:104B300020880421FFF7A0FE20880005000DFFF764
:104B40007FFE8500294611316846017308F05AF846
:104B5000294612316846017308F054F8294613318A
:104B60006846017308F04EF868461435057308F07E
:104B700049F8208800F03AFAA069002802D0022102
:104B800002F03EFF1C2200212046656802F0D1FCA5
:104B900017206560A07005B0F0BD0000B0030020D4
:104BA00070B510480468FF348134207AC00714D0EF
:104BB000012002F051FE0546207A80070FD5FDF74F
:104BC0002FFD044608481B21408C1E30FBF7B7FD23
:104BD0004443AC4203D9642070BD472070BD00201F
:104BE00070BD0000B00300203C260020F0B55FA09F
:104BF00093B000685E491090086801220446920252
:104C0000FF3482184134926A254640350F922A7A41
:104C1000D20702D0632013B0F0BDAA8B9E2A01D91F
:104C20009E2202E0172A01D21722AA830F9AA826F1
:104C3000129286570CE01C2012997043471878682E
:104C400011901C220021384602F073FC1198786004
:104C5000761E76B2002EEEDA20460830E060646000
:104C6000A06024600830119060612061FF22002163
:104C7000083009F0C2FB2046FF220021243009F051
:104C8000BCFB2046AA7F0021303009F0B6FB20464D
:104C9000FF2200213C3009F0B0FB00222A721046AE
:104CA0001726334B06E01C27014679430F9FC9198D
:104CB0008E70401C1968A031097A8142F3D8002017
:104CC0002883288C0026C7B2688CC0B20F9007E0FA
:104CD0002820E16C70430918204602F0CDFA761CBA
:104CE000BE42F5D3002607E03020216D704309183D
:104CF000119802F0C1FA761C0F988642F4D3012075
:104D0000FFF72CF90124684604701A4941802346B4
:104D1000042269460CA8FFF77FFC002822D16846D0
:104D2000018E818214490183042606858475202121
:104D300008A881720024C47204730721417384732C
:104D400005A90DA8FFF728FA00280BD168460487AB
:104D50004687818E10AB0EAA008E00F0C3FA0028A1
:104D600000D158E700202872472054E70000FFFFD9
:104D7000B003002001180000052A0000F3B58848A0
:104D800081B004680F462646FF368136307AFF34FC
:104D90004134C0075FD03889FEF7CAFA054601984A
:104DA00000285AD0012846D1002D33D0287B400757
:104DB00045D4384600F088FE0100F86880793AD082
:104DC0001E281AD12A7B120717D508212846FFF77B
:104DD0007FF82988012007F045FD0221384602F0BE
:104DE0000FFE42242D8801223721204608F0DCFDE9
:104DF0000100E4D08D802046CEE042060CD5D228BA
:104E000001D05228CFD1A878884203D32046394612
:104E100018301DE0022162E0C1070DD01D2814D01A
:104E20001B2812D0A889400515D4012189022846E3
:104E3000AF61FFF79DF8B1E0287BC00601D54520A2
:104E4000FEBD2988002007F0FBFC204639462430AF
:104E500009F0ECFAA2E04120FEBD002D3ED0F8683A
:104E600084791D2C3FD01B2C44D00121384602F000
:104E7000C7FD032C49D0052C47D0072C45D0092C61
:104E800043D00B2C41D00D2C3FD00F2C3DD0112CFA
:104E90003BD0132C39D0172C37D0192C35D0012CFE
:104EA00033D0022C38D0042C36D0062C34D0082C29
:104EB00032D00A2C30D00C2C2ED00E2C2CD0102C12
:104EC0002AD0122C28D0162C26D0182C24D0522CC4
:104ED00022D0D22C20D01E2C34D037E001213846ED
:104EE00002F08EFD5AE02988012007F0A9FC39461E
:104EF000022001E03946012007F064FC002825D09B
:104F00000121384602F07CFD20E010212846FEF702
:104F1000DFFF2988002017E040212846FEF7D8FF50
:104F2000A889000512D5FF2101312846FFF720F896
:104F30002988022007F084FC0121C9022846FEF7D7
:104F4000C7FF03E02988032007F08CFC307A0006B5
:104F500024D5A8781B211E30FBF7F1FB0446012065
:104F600002F07AFC2146FBF7EAFB002816D00C4938
:104F7000802209684226FF3181310B7A044693432F
:104F80000B722D8801223621304608F00DFD0100FC
:104F900004D08D80CC80304608F0F2FC0020FEBDAD
:104FA000B003002010B5104A1268FF328132127A25
:104FB000D20706D002280AD0052804D00A2810D12A
:104FC00001E0412010BD4888FEF786FF09E04888CF
:104FD000FEF7AEF9002804D00122C1689205114302
:104FE000C160002010BD0000B0030020F1B5FFB08B
:104FF00085B047200190002000904E4807688498B3
:10500000FF374137FEF794F9029000286BD0B9685A
:10501000083749E000980D4604AC20186B46022280
:1050200028310EF029FE0098294620186B460122EF
:105030002C310EF021FE2E462036307B00990128BF
:1050400004A809D040186B461022294608310EF0FA
:1050500013FE01902C6A24E040186B460222F4E70C
:10506000009904A8401821466B4602221C310EF01C
:1050700003FE009904A8401821466B460122233103
:105080000EF0FAFD2320005D0099012804A82DD020
:10509000401821466B46102208310EF0EDFD0190BC
:1050A0002468B442DCD12968B942B3D10198002800
:1050B00019D10098810709D0011D890889000A1AB1
:1050C000009104A908180B2102F033FA0298008815
:1050D00006F068FD002806D1849804AA0005000D9A
:1050E0000099FEF79DFA7FB006B0F0BD401821464A
:1050F0006B46022208310EF0BFFD019020890E4957
:105100008842CDD120460299FDF734FF4000A169C5
:1051100003900918009A04A880186B4602220EF02A
:10512000ABFD0190A169039802220818002102F04A
:1051300000FAB5E7B003002002290000F0B58FB0F7
:105140000D460446002069460874059064480668C8
:10515000A069FF3641360190002816D0A806800FBE
:1051600003D02088FEF79EFE059004AB2046059AEA
:105170000199FFF7F9FA412870D0E80708D0218893
:105180000220019A08F0B4FB68E041200FB0F0BDA6
:10519000680705D521880220019A08F063FB5DE0CD
:1051A000A80742D5019800F08FFCA178814205D96B
:1051B00021880220019A08F0E5FA4FE0207B4006A2
:1051C00005D5012189022046FEF7D2FE85E00120A7
:1051D00002F068FB050026D020880105090D28464D
:1051E00002F064FC21880220019A08F0CBFA616881
:1051F000C8788A7800021043A278401E17184878B1
:10520000097802020A43BBB229462046FCF726FC75
:10521000304629463C3009F009F96068B9B2801C73
:1052200007F08AF953E04520B0E7E80616D5019863
:1052300000F04AFC412702280ED90199801EC96856
:10524000CD79854201DD012617E0002D04D02946E5
:10525000FBF783FA00290FD0684607740121490340
:105260002046FEF735FE059800282AD004AA012121
:105270002F20FEF709FC2AE00646022000270290B4
:105280001CE0059800280CD0029909AB2A46091D9C
:10529000019802F0AEFA294609AA3120FEF7F4FB84
:1052A00007E0019800902B4621880220029A08F01E
:1052B0003DFE02984019C0B27F1C0290B742E0DB6D
:1052C000CCE76846027C2188022008F0F9FE022122
:1052D000A06902F095FB0020A061002056E70000C5
:1052E000B0030020F0B50746164885B000681D469B
:1052F000FF308130007A14460E46C00706D003A95D
:10530000384607F009FA01280AD102E0472005B023
:10531000F0BD04AA3046039907F0DEF9012801D058
:105320006020F4E7049A218860881268002900D080
:10533000108C32466E4631C603233946002000F0F9
:1053400003F8E4E7B0030020FFB50B46002197B057
:1053500013910D4610910E460591BB4914460A68FB
:1053600021981146FF31413103910021209F069180
:10537000079141880A910088FF3281320C90107A9F
:10538000C00706D011A9184607F0C6F901280AD1AE
:1053900002E047201BB0F0BD12AA2046119907F089
:1053A0009BF9012801D06020F4E712982321095CC1
:1053B00001293DD10289A5498A42FAD10A9A0C995C
:1053C00004688B18228C934232D8214620311491E4
:1053D0008978012914D0E78B8069007815908006C0
:1053E000800F7DD003984030007A800778D51A98D6
:1053F000032875D80028F4D0119B2068203315E0CD
:10540000BA4215D3BB42DFD8E6E701898F4A914201
:1054100003D12322125C012A0AD08C4AFF32914226
:1054200003D12321095C012903D000689842ECD103
:1054300003E186460028FBD08348016801208002F2
:105440000818806A0E9000900020A031097A8C46DE
:105450004AE01C2201465143009A0891515A0A051C
:1054600040D0179A002A01D091423BD171468A69F7
:1054700041000D91491C515C0B020D99515C06AA2B
:10548000591889B20D91002111541A99C90710D0E9
:105490001599C9060DD50D99C9070AD001211154D6
:1054A0000D43009A089989188978059A914200D984
:1054B00005911A99890715D51599890612D50D995F
:1054C00089070FD506A90A5C02231A430A54009AD9
:1054D00008991D4389188978059A914202D900E0FC
:1054E0005FE00591401CC0B28445B2D8002D58D071
:1054F00000200E991CE01C2242438B5A1B0515D03C
:10550000AB070BD55318DE68B3070DD406AB1B5C95
:105510009B0703D5330701D546203BE7EB0705D0B2
:105520005218127BD20701D0432033E7401CC0B28F
:105530008445E0D80598C01E80B2B84201D93846EB
:1055400001E00598C01EC6B2A8070BD5012002F0E5
:10555000A9F91390002872D0F21D012102F060F920
:1055600000280DD1E8071CD0012002F09BF9109013
:10557000002805D0F21D012102F052F9002810D0B8
:105580008020FEF7EBFC1398002802D0012102F0E6
:1055900037FA1098002802D0012102F031FA642075
:1055A000F8E6A1690C980A9A0818229901F0BDFF43
:1055B00014988078012800D1E783002D3AD0224B3F
:1055C0000120196880020818816A002006AA0DE0EF
:1055D0001C234343CF5A3F0506D05F18BC46FB68E7
:1055E000175C3B436746FB60401CC0B2164B1B6810
:1055F000A0331B7A8342EBD8A8070CD513980090F0
:105600002146F21C1C310220A369FCF7CFFC0220CA
:10561000139907F0D7F8E8070CD0109800902146AE
:10562000F21C1C310120A369FCF7C0FC0120109979
:1056300007F0C8F80020ADE601E06120AAE680206E
:10564000FEF78CFCABE70000B0030020032800004D
:10565000F8B5204E04463568AA3500F039F92070B7
:10566000000A607000F034F9A070000AE07000F0E9
:105670002FF9C2B28004830E2271002163710846A3
:10568000275C401C7918C0B289B20628F8D30029DB
:10569000E3D02078FF280CD16078FF2809D1A078CA
:1056A000FF2806D1E078FF2803D1FF2A01D1FF2B84
:1056B000D3D00622691D204601F033FF0028CCD04C
:1056C000316806222046743101F02BFF0028C4D037
:1056D000F8BD0000B003002002480068AA3000882E
:1056E00070470000B00300200C20704710B500F098
:1056F00003F8C01C800810BD5020704710B5034946
:1057000006220968AF3101F010FF10BDB003002080
:10571000F7B5174600241BE00098104900194018FF
:105720008608019800190546FAF7F8FF0102E878A3
:10573000090A0006014309480D46B10040420E180F
:1057400029463046FDF7E0FB3068854204D1241D30
:10575000BC42E1DB0020FEBD4A20FEBD0000FCEFA4
:1057600030B50D460446002307E000F0B1F8E054E0
:10577000000AE1189B1C4870DBB2AB42F5D330BD88
:1057800010B50448042200680021FF301D3001F0EC
:10579000D0FE10BDB003002010B5012817D807298E
:1057A00015D80C4A1268134620339875D9758007AE
:1057B000C906000E090E01430020074BA03203E08A
:1057C0008401E418A172401C147A8442F8DC0020A1
:1057D00010BD0000B003002000010020074A9142E4
:1057E00002DC5242914200DA1146FF2299325143C3
:1057F0000A1251180A14511808187047FFFF4F0079
:1058000010B50920C00600690002000A07F024FA5A
:1058100010BD7047134610B5174A1268743200283D
:1058200019D0062811D008280CD018280AD028280A
:105830000BD02A2809D02C280AD02E280BD0D0280B
:1058400012D013E0102908D010E0022905D00DE095
:10585000012902D00AE0062908D110180A46194683
:1058600001F063FE002010BD012901D0122010BDFF
:10587000187806F0BBF910BDB003002070B5134CCA
:1058800000252068F4210D540622FF21F53001F097
:1058900050FE236820211846E033DD7619771F215A
:1058A000597707220021FE3001F043FE20680522CF
:1058B000FF30FF21063001F03CFE2068FF22FF3060
:1058C0000021113008F099FD70BD0000B0030020E8
:1058D0000B2000070168490707D50168042291439E
:1058E0000160016808221143016041684168C907ED
:1058F000FCD0806880B2704700B5FFF7E9FF03462F
:10590000FFF7E6FF0004181800BDFEE77047704778
:10591000F0B5464C01252668AD027019406D002790
:10592000416B4348AA368DB0814244D00621684677
:10593000FFF716FF69464879C02108436946487158
:10594000206806224019406D2430FFF7E1FE07462B
:10595000102105A8FFF704FF206810224019406DB0
:1059600005A9001DFFF7D4FE394607460F43102155
:1059700009A8FFF7F5FE206810224019406D09A91B
:105980001430FFF7C5FE384314D12168294A49195C
:10599000496D2948891889088900254F0818394612
:1059A0000490FDF7B1FA049802680021BA4201D1CF
:1059B0000F4600E04A2722685019406DA232243079
:1059C000019006200146009000200AF003FF002805
:1059D00002D12068A2300190701D009A019901F057
:1059E000A4FD22681026314600207C320AF0F2FE27
:1059F000002807D0206832464119496D7C30091DC6
:105A000001F093FD2268314600208C320AF0E2FE5C
:105A1000002807D0206832464119496D8C30143176
:105A200001F083FD38460DB0F0BD0000B00300204A
:105A3000AAAAAAAA3400FCEF0000041010B50F4B6C
:105A400004461B684120FF3381331B7A86B09B07D5
:105A500011D56B469981DA81002018820420588282
:105A600003AA04A902230292019100901A4601217F
:105A70002046FFF769FC06B010BD0000B00300200F
:105A8000810010B505480C182068010A090220465B
:105A9000FDF73AFA2068002010BD00000000041055
:105AA000024600200146535C002B00D00120491C17
:105AB0000629F8DB70470000024800682030407E6D
:105AC00070470000B0030020C0688178C0780002F1
:105AD000081880B2704700007FB5FDF74DFD0B4DF3
