:020000041004E6
:100000000060002091B10410037F0410A760041069
:10001000AA5555AA45554C420000000000000000BA
:1000200000000000000000000000000023D10410C8
:1000300000000000000000007793041079D4041041
:100040002F470410E97F04100000000000000000AA
:1000500095D8041009D10410C524041061DA0410E5
:100060000000000000000000000000000000000090
:1000700000000000010B0410AB600410A960041024
:1000800000000000117E0410137E0410157E041081
:10009000177E0410B1B104101D810410052D041049
:1000A0000000000000000000000000000000000050
:1000B0000000000000000000000000000000000040
:1000C00000F002F800F08BF80CA030C808382418B3
:1000D0002D18A246671EAB4654465D46AC4201D180
:1000E00000F07DF87E460F3E0FCCB6460126334227
:1000F00000D0FB1AA246AB463343184748500100D4
:10010000C8500100103A02D378C878C1FAD8520713
:1001100001D330C830C101D504680C6070470000BD
:100120000023002400250026103A01D378C1FBD813
:10013000520700D330C100D50B607047F0B543467D
:100140004C4655465E466746F8B4104C6B462360F5
:100150000F4C20680F4C20600F4C20680F4C206023
:100160000F4C20680F4C2060BFF34F8F30BF074CFF
:100170002468A546F8BC9846A146AA46B346BC46A4
:10018000F0BD00BF30BF00BF704700000800002076
:1001900004ED00E0E402002024ED00E0E80200208D
:1001A00000E200E0EC02002010B5642902D100F06A
:1001B000A1F810BD782902D100F0D2F810BD632952
:1001C00002D100F013FC10BD732902D100F016FC1F
:1001D00010BD002010BD1FB51FBD10B510BD0448D7
:1001E0008546FFF7F8FF11F0B1FF00F04FFC00006B
:1001F0000060002003B4FFF7F0FF03BC00F04EFCEA
:1002000070B505460C46164602E00FCC0FC5103EF1
:10021000102EFAD2082E02D303CC03C5083E042EBA
:1002200007D301CC01C5361F03E021782970641C77
:100230006D1C761EF9D270BD0FB4054910B503AA26
:10024000029800F0DFFB10BC08BC04B018470000A7
:10025000DC02002070B5044685690068C10601D53E
:10026000302600E02026C00707D070BD6268304607
:10027000A1689047206A401C20626D1EF6D570BDB3
:1002800070B5044685690078C00707D170BD626803
:10029000A16820209047206A401C20626D1EF6D580
:1002A00070BD70B50C460546012A05D02878800639
:1002B00000D5EA69002302E0012305E05B1C9342BC
:1002C00002D2E05C0028F9D1A869E618C01AA8613A
:1002D000286AC01828622846FFF7BCFF04E06A6855
:1002E0002078A968641C9047B442F8D32846FFF7E9
:1002F000C7FF70BDF7B5002575291068009914A6D1
:1003000011D0C046C046002802DA404211A608E0DB
:10031000009909688A0701D50FA602E0490704D5AC
:100320000EA6012501E0C046C046009F00242437E8
:1003300004E000F07BFB30313955641C0028F8D113
:100340002B4632462146009800F0EDFAFEBD000033
:10035000000000002D0000002B0000002000000025
:1003600070B504460D4621461068C046C046218837
:10037000090502D50F4A7A4402E00E4A7A440E3249
:1003800023460021243305E006070009360F965D59
:100390005E54491C0028F7D120780023000705D5BA
:1003A000702D03D0002901D002231132204600F025
:1003B000BAFA70BD8E4B0100F3B50446002081B03F
:1003C00020622046E168884700287DD0252802D099
:1003D0006268A16883E0454F00257F442046E168BC
:1003E00088472028064608DB312E06D2B819203867
:1003F0000078002801D00543F0E7A80701D50420C4
:1004000085430020E0610746A0612A2E0AD03046CD
:100410000DF012FF002827D0B8000019303E0090E0
:10042000866119E00298BA00121902C8916102901F
:100430002046E1688847012F064617D1E069002869
:100440001FDA202085431CE000980A218069484378
:1004500000998019303888612046E168884706464F
:100460000DF0EAFE0028EFD1012F0AD02E2E08D180
:100470002046E16888470646202005437F1C022F5E
:10048000C3DBA069002803DA4042A06101200543D4
:10049000E80701D010208543002E24D03046413893
:1004A000192803D80120C0020543203620462560C4
:1004B0003146029A1546FFF777FE00280CD0012836
:1004C00007D0ED1DE80800E00DE0C0000830029004
:1004D00077E72D1D029574E762683046A168904762
:1004E000206A401C6CE7206AFEBD0000524B0100F0
:1004F000034610B50B439B070FD1042A0DD308C840
:1005000010C9121FA342F8D018BA21BA884201D9E3
:10051000012010BD0020C04310BD002A03D0D30726
:1005200003D0521C07E0002010BD03780C78401C5B
:10053000491C1B1B07D103780C78401C491C1B1B52
:1005400001D1921EF1D1184610BD000030B5441CF7
:1005500003E00178401C00290DD08107F9D10B4B35
:10056000DD0104C8D11A91432940FAD0001B0A06C4
:1005700003D0C01E30BD001B30BD0A0401D0801E58
:1005800030BD0902FCD0401E30BD00000101010158
:1005900010B5044600F002F8204610BDF8B5042A54
:1005A0002CD3830712D00B78491C0370401C521EB9
:1005B00083070BD00B78491C0370401C521E830725
:1005C00004D00B78491C0370401C521E8B079B0FF4
:1005D00005D0C91ADF002023DE1B08C90AE0FFF797
:1005E0000FFEF8BD1D4608C9FD401C46B4402C4313
:1005F00010C0121F042AF5D2F308C91A521EF0D4F3
:100600000B78491C0370401C521EEAD40B78491C1D
:100610000370401C012AE4D409780170F8BD134628
:1006200010B50446CAB21946100282181004821886
:10063000204600F00FF8204610BD01E004C0091F5D
:100640000429FBD28B0701D50280801CC90700D08A
:100650000270704700290BD0C30702D00270401C03
:10066000491E022904D3830702D50280801C891EFB
:10067000E3E70022EEE70022DFE7000082078B07B6
:100680009A4237D170B5920F0AD0032402780B78C2
:10069000401C491C002A2BD09A4229D12042F5D176
:1006A0001D4EF40104C808C9951B9543254010D17F
:1006B0009A4207D104C808C9951B9543254008D123
:1006C0009A42EFD012BA1BBA01209A4200D240429D
:1006D00070BD12BA1BBA2DBA18241000E0401900E0
:1006E000E140401A05D12E00E64002D1083CF4D189
:1006F000D01A70BD02780B78401C491C002A09D022
:100700009A4207D102780B78401C491C002A01D07C
:100710009A42EFD0D01A7047010101010378C278E4
:100720001946437812061B0219438378C0781B04CC
:10073000194311430902090A0006084370470022C1
:1007400003098B4273D3030A8B4258D3030B8B42AA
:100750003CD3030C8B4221D312E003460B437FD4DE
:10076000002243088B4274D303098B425FD3030AF0
:100770008B4244D3030B8B4228D3030C8B420DD303
:10078000FF22090212BA030C8B4202D31212090291
:1007900065D0030B8B4219D300E0090AC30B8B42CF
:1007A00001D3CB03C01A5241830B8B4201D38B037D
:1007B000C01A5241430B8B4201D34B03C01A524122
:1007C000030B8B4201D30B03C01A5241C30A8B4265
:1007D00001D3CB02C01A5241830A8B4201D38B0250
:1007E000C01A5241430A8B4201D34B02C01A5241F4
:1007F000030A8B4201D30B02C01A5241CDD2C30966
:100800008B4201D3CB01C01A524183098B4201D3E1
:100810008B01C01A524143098B4201D34B01C01ACC
:10082000524103098B4201D30B01C01A5241C30844
:100830008B4201D3CB00C01A524183088B4201D3B3
:100840008B00C01A524143088B4201D34B00C01A9F
:100850005241411A00D201465241104670475DE0B4
:10086000CA0F00D04942031000D340425340002237
:100870009C4603098B422DD3030A8B4212D3FC22E0
:10088000890112BA030A8B420CD3890192118B425F
:1008900008D3890192118B4204D389013AD0921175
:1008A00000E08909C3098B4201D3CB01C01A524130
:1008B00083098B4201D38B01C01A524143098B42F9
:1008C00001D34B01C01A524103098B4201D30B01E2
:1008D000C01A5241C3088B4201D3CB00C01A524107
:1008E00083088B4201D38B00C01A5241D9D24308EE
:1008F0008B4201D34B00C01A5241411A00D201462B
:10090000634652415B10104601D34042002B00D594
:100910004942704763465B1000D3404201B5002056
:10092000C046C04602BDFFB504460D4681B0243026
:1009300000902168880604D51022E0699143216067
:1009400000E00120A84201DD471B00E000270498D9
:10095000A1697A191018081AA0612078C00602D47B
:100960002046FFF777FC002608E003986268A1683C
:10097000805D9047206A401C761C20620498864265
:10098000F3DB2078C0060AD52046FFF763FC06E0BB
:100990006268A16830209047206A401C2062384677
:1009A0007F1E0028F4DC07E000986268A168405DC3
:1009B0009047206A401C206228466D1E0028F3DC08
:1009C0002046FFF75DFC2078000602D5022005B026
:1009D000F0BD0120FBE710B54369002B02D0C046F3
:1009E000C04601E0FFF75DFC012010BD1278014612
:1009F00024310A7000224A700122ECE711680022BB
:100A0000D243E8E7084B70B50D467B4400F027F869
:100A10000446284600F036F8002802D00020C043E3
:100A200070BD204670BD00000DF900000146800831
:100A3000081A02091018020A1018020C1018C0082F
:100A4000820012185200891A01E0401C0A390A2952
:100A5000FBD2704701694A1C02610878704700B5F3
:100A60008FB00291002105910549019379440391CA
:100A7000114604906846FFF79FFC0FB000BD0000D0
:100A8000E5FFFFFFC06880210840704710B50446AD
:100A9000C046C0462046FFF7ADFB10BD01491820F7
:100AA000ABBEFEE726000200704770B58C180578D3
:100AB000401C6B075B0F01D10378401C2A1106D143
:100AC0000278401C03E00678401C0E70491C5B1E37
:100AD000F9D12B0705D40023521E0DD40B70491CED
:100AE000FAE70378401CCB1A921C03E01D780D70C6
:100AF000491C5B1C521EF9D5A142D8D3002070BD01
:100B00007047F0B50F46B5B01546002130AA0F2347
:100B1000445C5E1A491C94551029F9DB1022694681
:100B200030A800F017FB0026B400E019401CFFF7C6
:100B3000F5FD395D000208430321891B89002CACB7
:100B4000761C6050042EEFDB214610236A460846CF
:100B500000F0C8F900200326311A8900635C820086
:100B6000AB54635A52191B0A53706358401C1B0C38
:100B700093706158090ED1700428EDDB35B0F0BDDB
:100B800070B5BAB0054600200C460090202069469A
:100B9000087210200A9038901E46039201A800F0B7
:100BA00087F92246294601A800F008F86A4631462E
:100BB00001A800F047F93AB070BD0000F7B5002574
:100BC00092B00F460446002804D0002F06D1149896
:100BD000002803DD6120400115B0F0BD1498002805
:100BE00004DB102804DA2079800601D49448F3E766
:100BF0002079410701D4810702D59148401CEBE7D9
:100C0000402108432071204614300F901430019089
:100C10001EE00026B00004904019C0190390FFF7B1
:100C20007DFD00BA010A03980902C07807AA0143B2
:100C30000498761C0019406941400498042E115014
:100C4000E8DB636A07A8019A0F9900F07FFA059D17
:100C500028461030059014998842DADB2079800606
:100C600020D400291EDD0026B00004904019C019D0
:100C70000390FFF753FD00BA010A03980902C078F8
:100C800007AA01430498761C001940694140049862
:100C9000042E1150E8DB636A07A8019A0F9900F04F
:100CA00055FACAE000200B900C900D900E900BA905
:100CB000636A0846019A00F049FA0B988721C00F31
:100CC00048430B990C9A4900D20F11430B910C9990
:100CD0000D9A4900D20F11430C910D990E9A4900BB
:100CE000D20F11430D910E99149A490041402846A4
:100CF00010300E9190421CD10026B0000290401995
:100D0000C0190490FFF70AFD00BA010A049809020D
:100D1000C0780BAB01430298761C00194269029817
:100D2000185842405140029807AA1150042EE4DBA3
:100D300079E00B988722C00F50430B9A0C9B52000E
:100D4000DB0F1A430B920C9A0D9B5200DB0F1A43D8
:100D50000C920D9ACB0F52001A430D924A0042405A
:100D600014980E92401B0390C017820F0398002620
:100D700010188010029019E0B00010904019C019AE
:100D80000490FFF7CBFC00BA010A04980902C0786E
:100D90000BAB014310980019426910981858424053
:100DA0005140109807AA11500298761CB042E3DC1B
:100DB000B00001190BAA49691258514007AA1150F5
:100DC000039B00211B1A42199C4696460BE0724673
:100DD0005218BA5CCD0018235B1B9A4007AB1D5814
:100DE0006A401A50491C8C45F1DC002909D0CD001D
:100DF000182107AA4D1B13588021A9404B401350BE
:100E000005E007A90A580123DB075A400A5007A941
:100E10000BAA05E0B00003195B6915586B400B5035
:100E2000761C042EF6DB636A07A8019A0F9900F07E
:100E30008DF920790421084320710020CCE60000C0
:100E40001D0C0000F8B516460F46040009D0002E10
:100E500007D025468035E86D401E102804D313487E
:100E6000F8BD61204001F8BD2079400604D400227D
:100E700011462046FFF7A2FE207902210843207187
:100E8000002018210CE0C217920F1218920892004D
:100E9000121983075269DB0ECB1ADA403A54401C10
:100EA000EA6D8242EFDC00203260F8BD1F0C0000CA
:100EB00010B5040007D002230022A16800F014FA44
:100EC000010003D00CE06120400110BD0020102281
:100ED0002261024683001B19401C5A610428F9DB79
:100EE000084610BDFFB5D910490083B0891D029195
:100EF0000368116854684B40416895686140846894
:100F0000C0686C40A446D4681E0E60408C4CC5B2CC
:100F1000A65D655D3606354367460E023F04360E14
:100F20003F0EA65DE75D36043F023E433543009524
:100F30000E0EDDB2A65D655D3606354366463602A9
:100F40000704360E3F0EA65DE75D36043F023E43C2
:100F50003543AE46CDB2665D65462F0EE75D1D0496
:100F60003F063E4307023F0E2D0EE75D655D3F04E1
:100F70002D022F433E4301966546EDB2070E665D96
:100F8000E75D0D043F063E431F023F0EE75D2D0E59
:100F9000645D3F0424022743029C3E43641E1032DA
:100FA0000294002C65DD674C00986749204043009F
:100FB0000098654DC00908401B21484343400099F3
:100FC000184648401821C841434000981021C841A4
:100FD000434000980821C841434010685A4F43409D
:100FE0007046204041007046C00928401B256843D8
:100FF00041400846754668401825E8414140704622
:101000001025E841414070460825E84141405068BC
:10101000019D41400198ED0920403D4040001B27C3
:101020007D436840019F05467D401827FD4168408B
:10103000019D1027FD416840019D0827FD41684042
:10104000956868408446304620403F4DF4092C4066
:1010500040001B256C436040044674401825EC4159
:10106000604010243546E54108246840E641704060
:1010700049E7334CC5B2665D1D0E645D2406264308
:101080000C02250E2E4C645D65462D042F0E2C4D52
:101090002404ED5D2D022C432643294C0096DDB23D
:1010A000655D0E0EA45D2406254364462402260ECB
:1010B000234CA45D0604370E214E2404F65D36024F
:1010C00034432543AE461E4CCDB2645D65461C4E8E
:1010D0002F0EF55D2D062C4305022F0EF55D1F0426
:1010E0002E043D0E164F7F5D65463F023E4334435E
:1010F000EEB2134DAF5D050E1148405D000607438B
:101100001802030E0E48C05C09040B0E0C490004C3
:10111000C95C93680902084307431068009E634056
:101120005168049C7040D2682060754604986940FC
:10113000416004987A4083600498C26007B0F0BDB3
:10114000E04D05107F7F7F7F0101010100B5FFF7B2
:10115000C9FE00BDF7B50298002486100DE0009886
:10116000A7003D182846FFF7D9FA00BA000AE97827
:10117000000208430199641CC851A642EFDC0199A2
:10118000029A084600F002F8FEBD0000F0B5002308
:101190001D46941003E0AA0086588E506D1CAC4288
:1011A000F9DC504FFA1FF93A042C04D0062C28D051
:1011B000082C7DD14FE0C86805022D0E040E555D48
:1011C000145D2D062C4305042D0EC0B2555D105C38
:1011D0002D04000205432C439D007D59086868409A
:1011E000444001205B1C0C61840065180C59EE68BA
:1011F000401C66402E610428F6DB0A2B71DA1031A0
:10120000D9E7486905022D0E040E555D145D2D06C3
:101210002C4305042D0EC0B2555D105C2D04000258
:1012200005432C439D007D590868684044400120D7
:101230005B1C8C61840065180C596E696640AE6158
:10124000032804D0401C0628F4DB1831D9E7082B0A
:1012500047DA0420EEE7C86905022D0E040E555D3D
:10126000145D2D062C4305042D0EC0B2555D105C97
:101270002D04000205432C439D007D5908686840F9
:10128000444001205B1C0C62840065180C59EE6917
:10129000401C66402E620428F6DB072B21DAC86A60
:1012A000050EC4B2555D145D2D062C43050200E009
:1012B00017E02D0E0004555D000E105C2D04000299
:1012C000054308692C43444005200C6384006518DD
:1012D0000C59EE69401C66402E620828F6DB20316E
:1012E000B9E7F0BDE04E0510F8B59E468C460028E3
:1012F00007D0002905D059078C0F002A04D1012CF2
:1013000002D061204001F8BD416A102903D018299C
:1013100001D0202905D1012C05D00169491E1029D1
:1013200001D31E48F8BDC2600179F923194001714B
:10133000012C20D000210B468D002D18491C6B611B
:101340000429F9DB002113E0CB179B0F5B189F08E2
:10135000BF003D182E4614360096CF1B565CFF008A
:1013600018236D69DF1BBE403543009E491C356064
:1013700003698B42E8DC0179C9070CD161468160C1
:101380007146C90701D0032C05D10146426A2831B4
:101390006046FFF7DFFE0020F8BD00001F0C0000D4
:1013A000F8B508781A4E3F2812D04A783038000233
:1013B000303A104384B28878C97830380002303926
:1013C000084385B2134FA81FB8420AD8B5840BE072
:1013D000F18C11A0FEF730FFB18C15A0FEF72CFFA9
:1013E000F8BD19A0FEF728FFA01FB84203D8AC42F1
:1013F00001D9F48402E01AA0FEF71EFF0BF092FE62
:101400002A4621461CA0FEF717FF06F0E1FD00006A
:101410006C2000207A0C00004164765F496E746590
:101420007276616C5F4D61783A2564200D00000092
:101430004164765F496E74657276616C5F4D696E6A
:101440003A2564200D0A0000416476496E74657285
:1014500076616C5F4D696E3A4661696C0000000010
:10146000416476496E74657276616C5F4D61783A5D
:101470004661696C0000000041545F416476496E2A
:1014800074657276616C2D4D4158202C204D494E6B
:10149000203A2564202C2025640D0A00F8B5087830
:1014A0001A4E3F2812D04A7830380002303A1043A2
:1014B00084B28878C978303800023039084385B260
:1014C000134FA81FB8420AD8B5840BE0718D11A044
:1014D000FEF7B2FE318D15A0FEF7AEFEF8BD19A0E5
:1014E000FEF7AAFEA01FB84203D8AC4201D974850A
:1014F00002E01AA0FEF7A0FE0BF014FE2A462146D9
:101500001CA0FEF799FE06F063FD00006C20002091
:101510007A0C0000436F6E5F496E74657276616C81
:101520005F4D61783A2564200D000000436F6E5FC7
:10153000496E74657276616C5F4D696E3A25642000
:101540000D0A0000436F6E496E74657276616C5FC0
:101550004D696E3A4661696C00000000436F6E4948
:101560006E74657276616C5F4D61783A4661696C44
:101570000000000041545F436F6E496E74657276DF
:10158000616C2D4D61782C4D696E3A202564202CBC
:101590002025640D0A00000010B50A200DF0CFF8D8
:1015A000002802D102A0FEF747FE002010BD000077
:1015B00041545F44656C65745F414456204F4B0055
:1015C00010B50648052100880FF0DBFA002802D18B
:1015D00003A0FEF731FE002010BD0000F002002045
:1015E00041542B41545F446973636F6E6E6563743D
:1015F0003D4F4B0D0A00000000B589B008281FDDE3
:10160000002007AA0B5C1354401CC0B20628F9D373
:101610007D20000105900690282000213C220190A9
:1016200002900492012003910A460091800307ABC7
:1016300001460DF057F8010004D004A0FEF7FCFDB0
:1016400009B000BD0CA0FEF7F7FDF9E74572726F17
:1016500072207768696C65207374617274696E6753
:1016600020636F6E6E656374696F6E3A2030782503
:101670003034780D0A000000636F6E6E6563746528
:10168000640D0A0010B50878104C3F2809D0303896
:10169000A0850BF047FDA18D0DA0FEF7CDFD06F056
:1016A00097FCA08D012807D0022807D0042809D074
:1016B000082809D00AA002E00BA000E00FA0FEF766
:1016C000BBFD10BD12A0FAE715A0F8E76C200020C2
:1016D00041545F424C455F4D6F64653A2578000088
:1016E0006572726F720A0000307830313A205065AE
:1016F000726970686572616C0D0A00003078303272
:101700003A2042726F61646361737465720D0A00FE
:10171000307830343A2043656E7472616C0D0A0083
:10172000307830383A204F627365727665720D0AF0
:101730000000000070B506460878144D0C463F289E
:1017400007D014220021281D06F057FC0022B61EE7
:1017500016E00FA0FEF770FD002406E028190179BD
:101760000EA0FEF769FD641CE4B2281DFEF7EEFE34
:10177000A042F3D870BDA05CA918521C0871D2B267
:10178000B242F8DB0BF0CEFC06F022FC6C2000200D
:10179000626C655F6E616D653A2000002563000034
:1017A00070B508783F2802D000F03CFD70BD00F015
:1017B0000BFD00280CD108A0FEF73EFD084D0024CB
:1017C000691D08A0FEF738FD641CE4B2062CF7D3AF
:1017D00005A0FEF731FD70BD4D41433A20200000C9
:1017E0002621002025783A000D0A000010B509785E
:1017F0000F483F2904D001750BF094FC06F0E8FB7C
:10180000017D0B000CF006FC0504060A0C0E10000E
:1018100008A000E00FA0FEF70FFD10BD15A0FAE72D
:101820001CA0F8E724A0F6E72CA0FEF705FD10BDEC
:101830008C2000202D20307830303A20494F5F43F3
:1018400041505F444953504C41595F4F4E4C590DE4
:101850000A0000002D20307830313A20494F5F4394
:1018600041505F444953504C41595F5945535F4E75
:101870004F0D0A002D20307830323A20494F5F4317
:1018800041505F4B4559424F4152445F4F4E4C5976
:101890000D0A00002D20307830333A20494F5F4345
:1018A00041505F4E4F5F494E5055545F4E4F5F4F12
:1018B00055545055540D0A002D20307830343A20BC
:1018C000494F5F4341505F4B4559424F4152445F3E
:1018D000444953504C41590D0A0000006572726F23
:1018E000723A25640A00000010B5084C2068C00751
:1018F00003D007A0FEF7A0FC05E006F08DFA2068F3
:10190000032108432060002010BD0000FC020020DD
:101910006572726F72A3BA434F4E4E45545F526563
:10192000706561740000000038B508783F2809D060
:101930000C4CE0700BF0F6FBE1780BA0FEF77CFCA2
:1019400006F046FB0E486A46012100880FF0AAFD0A
:10195000002804D16846017803A0FEF76DFC002042
:1019600038BD00008C2000207472616E736D697444
:101970005F706F7765725F6C6576656C3A256400A1
:10198000F0020020FFB583B000250E4601240C9F15
:1019900026E0F168A01D09180222684606F029FB1E
:1019A0006846008803F0F8FA010020D068460A8DE6
:1019B0000088824212D001AA0BF076FC01280DD1DA
:1019C00001992620405C400708D506986A00101847
:1019D00002221C3106F00DFB6D1CADB2A41CA4B29A
:1019E000304604F03FFC401EA042D2DC3D8007B0F0
:1019F000F0BDFFB583B000200F9E0090304603F08D
:101A0000CBFA050022D00D980C300190288DB04201
:101A100013D31099884210D8294602222A310198FE
:101A200006F0E7FA10220E990D9806F0DEFA00286B
:101A300009D0298D1098814208D02F462C6A203772
:101A4000BC423ED13FE00C980021018007B0F0BDC0
:101A5000A08BB04234D310998842F7D8204620306A
:101A60000290C078012808D02046083010220E9934
:101A700006F0BBFA002808D022E0214602220831F5
:101A8000019806F0B6FA0D98F0E7029880794007C1
:101A900016D50098002801D1E08B0090E18B81429F
:101AA000D4D10C98022200884100069808182146DB
:101AB0001C3106F09EFA0C980C990088401C088096
:101AC0002468BC42C4D103982D6808308542BDD03B
:101AD000298D1098814299D9B8E770B50C46054612
:101AE000C968C068212206F084FA60896881207C78
:101AF000287420892881002070BDFFB51E4613463A
:101B000081B06A4619B200F069F81B270546002823
:101B10001FD01AE00A9800281ED069460020085EEF
:101B2000391A8CB2B1B28C4200D30C46E968801CE1
:101B300008182246029906F05CFA029869460019D4
:101B4000361B0290002008806D69002E14D0002DF5
:101B5000E0D1412005B0F0BD6A4600206989105EE1
:101B6000091A8CB2B1B28C4200D30C46E968801CD1
:101B7000091822460298DEE70020EBE7F8B5074691
:101B800011480121006889024018104D046AA97F9C
:101B90003A4620680BF097FB0026002804D0068008
:101BA0004068022106F090FC002008E06268C10055
:101BB000535ABB4201D151180E80401CC0B2A97FBC
:101BC0008142F3D80020F8BDFC0300201C27002030
:101BD00000E0084641690029FBD1704706E0002873
:101BE00007D01B2904DB1B39406909B20029F6DC48
:101BF0001180704770B50A480121006889024018B9
:101C0000084D046AA87F0021C200206806F0F5F99B
:101C1000A87F0021C200606806F0EFF9002070BDC7
:101C2000FC0300201C27002070B5902504460122EB
:101C3000114628460CF0A0FC010003D028464C6059
:101C40000CF086FC70BD000010B5104A012112682E
:101C5000A0321278D20714D000F01AF810BD002973
:101C600001D0202100E0102101740021446941616C
:101C700000F00EF8002801D0412010BD2000F2D164
:101C800001E00028EBD1002010BD0000FC03002083
:101C900010B505F0E5FB452801D0412010BD10F03E
:101CA000AFFD002010BD70B5902504460122002133
:101CB00028460CF061FC010003D028464C600CF073
:101CC00047FC70BDF0B52BA00FC893B006AC0FC495
:101CD0002CA00FC80FC42FA00FC80FC4102206A934
:101CE000304806F086F9304C062301222D490220A7
:101CF00000940CF0C0FE00282FD12A4810220AA917
:101D0000103006F076F910260027A01C0125254A80
:101D100000960396029701970495059014231032BC
:101D2000022120880CF088FE002816D11D481022C0
:101D30000EA9103006F05DF9201D05900C20194AFF
:101D40000295039604950197009014231032022106
:101D500020880CF071FE002805D014A0FEF76CFA64
:101D6000472013B0F0BDA288618819A0FEF764FA7D
:101D70000020F6E7669A0C200008969EE2119EB1BC
:101D8000E0F273D9669A0C200008969EE2119EB18B
:101D9000E1F273D9669A0C200008969EE2119EB17A
:101DA000E2F273D9F81D0020F00200204572726F34
:101DB00072207768696C6520616464696E6720438E
:101DC00068617420736572766963652E0A0000008D
:101DD0004368617420536572766963652061646449
:101DE00065642E0A545820436861722048616E640D
:101DF0006C6520253034582C20525820436861727D
:101E00002048616E646C6520253034580A0000005B
:101E100070B501220021164D0C460DE0202B08D094
:101E2000002A08D014290EDA8A00A8500022491C82
:101E300001E004700122401C0378002BEED1002940
:101E40000CD00C4C07E0012070BD2868FEF716FC92
:101E5000002805D00C3421680029F6D1022070BD7D
:101E600005480549626800788039904770BD0000D8
:101E700018200020000300202421002070B50A78DB
:101E8000134D3F2A06D0082813D012A0FEF7D4F92C
:101E9000002070BD16A0FEF7CFF906242819C17ED8
:101EA00016A0FEF7C9F9641E2406240EF6D114A06C
:101EB000ECE700200A5C2B18401CC0B21A770628F9
:101EC000F8D30BF02FF90FA0FEF7B6F906F080F863
:101ED0006C200020506C6561736520656E746572BE
:101EE0002074686520362D626974204D41430000DE
:101EF00041745F4D61633A200000000025783A008C
:101F00000D0A00004F4B0D0A0000000010B503A1A0
:101F100004A0FEF791F9002010BD0000312E302EF4
:101F20003000000041542B56455253494F4E3D2539
:101F3000730D0A0010B509A0FEF77EF90DA0FEF79B
:101F40007BF9114C04E011A0A268FEF775F90C347E
:101F500021680029F7D1002010BD00000A417661F8
:101F6000696C61626C6520636F6D6D616E64730A8C
:101F7000000000002D2D2D2D2D2D2D2D2D2D2D2D45
:101F80002D2D2D2D2D2D0A000003002025732573E6
:101F90000A00000006F01CF87FB505466846008977
:101FA0000C4600281DD0E1680C208871E0680222F0
:101FB00002A9C01D06F01DF8E068022203A909303D
:101FC00006F017F805220121204606F0ABFA212180
:101FD000E86889010843E8600D20A872002004B079
:101FE00070BD4220FBE77FB50546684600890C9E20
:101FF0000C46002816D069468989884212D8E168C3
:1020000008208871E068022202A9C01D05F0F1FFD6
:10201000E068022203A9093005F0EBFF012E04D08D
:10202000022E0AD0422004B070BDE068022208A946
:102030000B3005F0DEFF072206E008AB1022092175
:10204000204606F09DFA15220121204606F06AFA84
:102050002121E86889010843E8600920A87200206E
:10206000E1E7000070B50E460E4915468A88521CFD
:10207000904209D1002404E0295D0BA0FEF7DCF8B2
:10208000641CB442F8DB70BD4988891C8842FAD1CF
:1020900028780128F7D1054801680422114301601E
:1020A00070BD0000F002002025630000FC0200204B
:1020B000F8B50BF0A3FA1F4C032520682D02411937
:1020C000097B002909D1A0300078C0072BD00EF081
:1020D00067FC00F011FE00F0CFFF00F089F92068E6
:1020E0000146203140308A7E407882431AD1087EF2
:1020F000002817D1104F3888000713D50920C006D3
:102100000669FA2010F012F8797AC900401821689F
:102110004919896F891B09020912884202DA0020D5
:1021200010F076F9F8BD02F09FF902F0ADFF0AF069
:1021300015FCCEE7FC030020C000002010B50446CB
:10214000094800F08BF8010003D008A0FEF774F8EE
:10215000FEE7204600F036FA010003D010A0FEF79B
:102160006BF8FEE710BD0000E04B05104572726F82
:102170007220696E20426C75654E52475F537461E0
:10218000636B5F496E697469616C697A6174696FC8
:102190006E2829203078253032780D0A00000000A2
:1021A000434841545F446576696365496E697428A4
:1021B000292D2D3E204661696C65642030782530DC
:1021C00032780D0A0000000010B5002301211A46E4
:1021D000490310200CF028FC011E03D002A0FEF7DA
:1021E0002BF8472010BD00004572726F7220696E97
:1021F000206163695F6761705F73746172745F67A8
:10220000656E6572616C5F646973636F7665727920
:102210005F70726F6328293A203078253032780D4C
:102220000A00000010B502200CF002FC011E03D0D1
:1022300002A0FEF701F8472010BD0000426C655374
:10224000746F705363616E2829206661696C6564E0
:102250003A203078253032780A00000010B5C17F6E
:102260000024002901D011240CE001463422064844
:1022700005F0BFFE00F08AF8002801DA072401E02B
:102280000BF04CFE204610BD1C27002070B50F48F7
:102290000F4D827F2868A8210A540146002460312E
:1022A0000C754C758C75E122CA7580220A76022263
:1022B0004A76302220310A774C7712228A779F3073
:1022C0000EF016FB2868A030047070BD1C2700209B
:1022D000FC03002070B50BF077F904F0B9FF1E4E37
:1022E0000122316892021B4D8918C969687888708B
:1022F00006F07CF8FFF77EFC04F03AF82C46203C10
:10230000164920683268401881100520C001101855
:102310000161616889084161A168890881610AF0E9
:102320004DFA3068218BFF3081300184618B41840C
:10233000A18B4183618C818329788177002101728F
:1023400001F0CEFE03F068FE03F0E8FD00F024FF8C
:1023500070BD00003C270020FC0300200000FCEFC3
:1023600010B509490C694A690321601E0843002120
:10237000401C05F042FE204600F03EFD00F074FED9
:102380000FF02AFF10BD00001C27002070B5164971
:1023900003238A8BFF24521E1A438B7F2D34634301
:1023A000D3180A8B282462439B184A8B302462433B
:1023B0009B180A46203252783C2462439A180B4BF1
:1023C0000020D4184A69C043A2420BD18B22D2000C
:1023D000944207D90D69284600F00EFD00F044FE36
:1023E000401B201A70BD00001C270020AD13000008
:1023F000F8B529480268D06D5832401C002815D025
:10240000002426480025C07B00283ED00926F60679
:102410002348002C1CD00021224F0B460D46416959
:102420005B1CA94204D1002902D003E00124E8E7A3
:10243000BB42F3DB116000695060306991680002B3
:10244000090E000A09060143916000F02DF81DE015
:10245000316993680902090A1C0E08D0018BC9076B
:1024600012D04169116000695060D57210E0C81A3D
:1024700000027D2400122403A04205D9180E000694
:102480000843906000F010F8F8BD5560002CFBD0B8
:1024900003CA10F05FF9F8BDFC0300203C270020C0
:1024A0000000104888130000044900200861044817
:1024B000012100686030C1707047000000001048C2
:1024C000FC03002010B507F0D9FA10BD70B5204903
:1024D00000230868436503650F222030027501223E
:1024E000184692020C680546A418246C3035235413
:1024F0000C68A418246C63550C683035A418246C3F
:1025000063550C68A418256C04469034401C2B5568
:102510002D28E7DB09688818026C82611446303484
:102520004461903202610B480C4642340380092218
:10253000427105238371C2710372418100F00CF86E
:10254000FF2020706070A070E0701F20207170BDAF
:10255000FC030020C000002010B5064801680648B2
:10256000406A002803D020220DF0C8FD10BD0020D5
:10257000087010BDFC0300201C270020F8B5069C45
:102580001F4615460646002C17D0E0680222C01DE3
:1025900005F02FFDE81E82B23B460721204605F0DC
:1025A000EFFF2AB20121204605F0BCFF012E06D024
:1025B0001D20E16888710020F8BD4720F8BD1B2070
:1025C000F7E7000030B505462DA003C887B0059198
:1025D00004902D4A062100200CF08CFC040002D04F
:1025E00001462AA043E02848001DC17801200CF0D4
:1025F0007DFC0CF053FB040002D001462CA036E019
:1026000034A0FDF719FE06AA02A9019200912846FE
:1026100003AB082200210CF0AFF8040002D0014601
:1026200034A024E03CA0FDF707FE04A80090684613
:1026300001890823002280890CF005FC040002D0E7
:1026400001463DA013E049A0FDF7F6FD00200CF087
:10265000D4F9002805D050A0FDF7EEFD412007B0C9
:1026600030BDFFF72FFB040005D0014653A0FDF756
:10267000E3FD2046F3E75AA0FDF7DEFD0020EEE77C
:10268000426C75654E524731882000205365747442
:10269000696E672042445F41444452206661696C20
:1026A00065643A203078253032780D0A0000000049
:1026B0004572726F7220696E206163695F67617431
:1026C000745F696E697428293A2030782530327831
:1026D0000D0A00006163695F676174745F696E6908
:1026E000742829202D2D3E20535543434553530D27
:1026F0000A0000004572726F7220696E2061636982
:102700005F6761705F696E697428292030782530B1
:1027100032780D0A000000006163695F6761705FD5
:10272000696E69742829202D2D3E20535543434559
:1027300053530D0A000000004572726F7220696EDB
:10274000204761747420557064617465206368610A
:1027500072616374657269737469632076616C7504
:1027600065203078253032780D0A00006163695F9A
:10277000676174745F7570646174655F63686172CA
:102780005F76616C75652829202D2D3E20535543B9
:10279000434553530D0A00006163695F6761705FD1
:1027A0007365745F696F5F6361706162696C69749E
:1027B00079206661696C0D0A000000004572726F35
:1027C0007220696E204164645F436861745F536581
:1027D0007276696365203078253032780D0A000002
:1027E0004164645F436861745F53657276696365D1
:1027F0002829202D2D3E20535543434553530D0A80
:102800000000000070B5154606460BF001F90446BD
:10281000082D0BD1052C09D130460AF07BFA00288F
:1028200004D0008A4004800F00D00024204670BDF0
:102830002423184204D0C81F092803D82032D1719C
:10284000002070476120704770B50E46054601F0C4
:1028500073F8040012D0FF21E068413108420DD125
:1028600080040BD4012005F081FD3060002803D0E6
:102870002905090D05F07EFE204670BD002070BDC3
:10288000F1B5FFB001248BB0600204900027BD4871
:1028900006970068BA4DFF30413000908A9809AA27
:1028A0000005000D04A909F09FFD0590002839D10D
:1028B000042009A9049A8B18203BDB7F0B2B03D142
:1028C000521E0492401EF5D1002609A88119022249
:1028D00001A8039105F08DFB6846818808AB07AA23
:1028E000009800F02DFE01281FD0022873D0684602
:1028F0008088854200D30546844200D9204604469C
:1029000003988078012867D013360498864200D354
:1029100001270498811B042901D38642D5D3A542FF
:102920007CD905987FB00CB0F0BD07980290002FBD
:10293000EFD1029902222831039805F056FB0028B6
:102940001ED102982030017B03988078814217D1F4
:10295000012808D10298039902220830C91C05F009
:1029600044FB002814D003988078022808D10298EC
:10297000039910220830C91C05F037FB002807D046
:102980000298008DA84200D80546A04200D3044614
:10299000039909A88978012905D0133604998E4234
:1029A00003D3012706E0761DF8E78119022201A86A
:1029B00005F01FFB0098029B083086462BE09C46E2
:1029C0006846196A8288203310E0888B904206D3CB
:1029D000012F02D079E722E0C0E09042FAD9A84264
:1029E00000D80546A04200D3044609689942ECD1BC
:1029F0006046036873450ED0188D904203D3012FB3
:102A000009D1904207D9A84200D80546A04200D378
:102A10000446012FDED17345D1D17AE7A9E00798AA
:102A20000290002FF9D1029902221C31039805F07F
:102A3000DCFA00281ED102982030C17803988078F3
:102A4000814217D1012808D1029803990222083047
:102A5000C91C05F0CAFA002819D00398807802280A
:102A600008D10298039910220830C91C05F0BDFA5C
:102A700000280CD00298808BA84200D80546A042BE
:102A800000D3044603988078012823D003E00398FC
:102A90008078012804D01336069801281CD01EE047
:102AA000029839490089884214D18A9800F044FF7D
:102AB0000146029800F062FD02990222098C484307
:102AC0000299896940180399491D05F092FA01207D
:102AD0000690D7E7761DDFE70020B61C0690049825
:102AE000864201D3012705E009A88119022201A825
:102AF00005F07FFA0298089B016800980830844628
:102B000029E09E466846828820330EE0888B9042FA
:102B100004D3012F00D0D8E69042FCD9A84200D8B7
:102B20000546A04200D3044609689942EED170469A
:102B3000036863450FD0188D196A904203D3012FA3
:102B400009D1904207D9A84200D80546A04200D337
:102B50000446012FDFD16345D3D1DAE60398C0786C
:102B6000022804D103980079292800D1B61C761DCB
:102B7000CBE6224629468A9803F02EFB0590D1E643
:102B8000FFFF0000FC0300200229000070B515467D
:102B90000C4606460AF0A7F820346179012D0AD0C8
:102BA0000A0702D54207920F1DD0CA061DD502079B
:102BB0001BD4082070BDCA0702D04207920F12D062
:102BC0008A0701D50207F4D5490707D5C00725D0E4
:102BD000E17930460AF012F8652821D02079C00743
:102BE0001AD1022070BD052070BD890607D5C00727
:102BF00014D0E17930460AF001F8652810D0207928
:102C0000810701D4022D0DD0410701D4042D09D034
:102C1000000701D4082D05D0002070BD0F2070BD25
:102C20000C2070BD032070BD1CB500246946012036
:102C30000AF05AFB012832D101AA022000990AF0B9
:102C400033FB01282BD10198816909788906890F06
:102C500025D000680168009820301EE00A89114BD9
:102C60009A4203D123235B5C012B18D00D4BFF3319
:102C70009A4211D12322525C012A0DD18A695378DC
:102C800012781B02D21892B2D30701D0641CE4B2AE
:102C9000920701D5641CE4B209688142DED1204666
:102CA0001CBD00000328000010B50446406803F076
:102CB000D9FA001D6188C0B2814201D9472010BDF8
:102CC000814201D1002010BD412010BD10B508483F
:102CD0000649416107490723CA691202120A4404DE
:102CE0002243CA6100218161036110BDFE7C0000A6
:102CF00000E000E004ED00E010B506F097F905F003
:102D00000FFA10BD7047002101E000BF491C81424D
:102D1000FBDB7047F3B587B004461C222AA1684646
:102D2000FDF76EFA092101232E4AC906002C32D084
:102D300044206D46A8732C48057A1D4305725B201C
:102D40006D4628754C20E87220202872B2206874E5
:102D5000264DA86A264E070CB74204D14007400E04
:102D60006F460B30F875686A050CB5420AD16E469D
:102D70007579CF2635406E46757175798007800E5E
:102D8000054375716846012580B22D044019C8605D
:102D9000C868C003FCD4108B0028FCD01383172014
:102DA0009081002010610898002806D00869102240
:102DB00010400B6913408342FBD0002C02D00D4918
:102DC0001520087009B0F0BD023F00023E30023C01
:102DD00020023B4C023A400239B202345B02350B0E
:102DE000000000000000104800002040C007001054
:102DF00055AA00000000C040F1B582B08B22D2007D
:102E0000012102A805F072F8954C042220604321AC
:102E100002A805F06BF8032721683F02C919086171
:102E20000422432102A805F061F821680422C9198F
:102E30004861FF21843102A805F058F82168894DC6
:102E4000C9198861A97F0C2202A80B3105F04EF840
:102E500001262168B60289198864A97F202202A868
:102E600005F044F82168102289198863A97F02A817
:102E700005F03CF8216828228919C863062102A8B8
:102E800005F034F82168302289194864052102A828
:102E900005F02CF82168182289190864032102A87A
:102EA00005F024F82168242289190863032102A867
:102EB00005F01CF82168B21089194863012102A8A5
:102EC00005F014F82168382289190865A97F02A83D
:102ED00005F00CF821681C2289194862A97F02A814
:102EE00005F004F82168782289198862A97F02A870
:102EF00004F0FCFF21680722FF31813108660321BD
:102F000002A804F0F3FF21682822FF3181314866CE
:102F1000012102A804F0EAFF2168FF318131C8666F
:102F2000AA8B012102A804F0E1FF21682822FF31C9
:102F300081314861298B02A804F0D8FF216808225A
:102F4000FF318131C860012102A804F0CFFF216860
:102F5000082289190862A97F02A804F0C7FF216826
:102F600008228919096A0860A97F02A804F0BEFF37
:102F700021681C228919096A4860012102A804F00D
:102F8000B5FF216818228919C861284620300090B1
:102F9000417802A804F0AAFF216821228919C96991
:102FA00048610098417802A804F0A0FF216830220F
:102FB0008919C9698861698B02A804F097FF2168A3
:102FC0000422FF3181310861A97F02A804F08EFF3D
:102FD00021680222C9194860A97F02A804F086FF6F
:102FE00005212268C9015118C865A97F042202A8D9
:102FF00004F07CFF05212268C90151180866A97FE9
:10300000012202A804F072FF05212268C9015118AB
:103010004866A97F012202A804F068FF0521226802
:10302000C90151188866A97F012202A8491C04F031
:103030005DFF21681022C91908600B2102A804F065
:1030400055FF21680422FF3101310863802102A865
:1030500004F04CFF21688919C8620298FEBD000087
:10306000FC0300201C270020704710B5C001000C95
:1030700000F040FA002010BDFEB572B6444D0823A2
:10308000286803270146403042786C461A43427054
:1030900000203F020206920D5218D219D2695288BE
:1030A0004300401CE2520328F4DB62B672B6C81932
:1030B00000218668816062B6F00702D000200DF022
:1030C00037FEB00702D501200DF032FE700702D5A1
:1030D00002200DF02DFE300702D503200DF028FE52
:1030E00000262DE0E0780C2819D22A4980000A58E1
:1030F000211D20469047A1788908C9060AD4E178A5
:10310000382907D288002349E0390A58211D204672
:10311000904704E0002802D0432808D031E002980C
:1031200029684018C019C0692188018008E072B67A
:103130002868F722403041781140417062B620E0A3
:10314000300672006946895A800D02902A688018FC
:10315000C019C069028892089200141802880834C5
:103160008A420ED0A27891070BD09107890F0129CE
:1031700001D104460834A17800208908C906BED5CB
:10318000B0E7761C032EDBDB0DF0C2FBFEBD0000BA
:10319000FC030020F44C051070B50DF0D3FB114D6D
:1031A0000324286824020019006940210DF0B0F8BA
:1031B00029680919C861486940210DF0A9F82968F2
:1031C00009190862886961100DF0A2F82B680822BD
:1031D000191948626120C0000021181804F00DFF81
:1031E00070BD0000FC030020FEB504462A481646C8
:1031F00005680F46FF350846413503F033F80328CC
:1032000006D033460022022104200AF0ABF840E049
:10321000F968022201A8C91D04F0EBFEE2689005DE
:1032200028D468468188172903D35C20405B17287F
:1032300001D2172002E0814200D20846A07001208E
:10324000400202430220E260009013482788006891
:10325000A478FF300130C079012240070AD522212D
:1032600000980BF089F9010004D08F80CC80009881
:103270000BF06EF9F16803208871F068294602228C
:103280005C31C01D04F0B5FE03220121304605F07B
:1032900049F90020FEBD0000FC030020F7B5002026
:1032A00090B009900D9004460490059090480F4608
:1032B00005680846FF35413502F0D4FF022815D1D4
:1032C0002846303003900BF0BAFE060013D0129857
:1032D0001921C068012281711146129805F022F966
:1032E000F868C079002872D001280BD0002218217C
:1032F0000420129B03E000221821FF20129B0AF0F9
:1033000031F8F2E02F6BD5E00897F968022207A8A0
:10331000C91D04F06EFE1098089F008839890005C9
:10332000000D814203D00998401C099007E00498E1
:103330000028684605D0818B049881421CD03F68E4
:1033400083E0808B049001F027FE01000FD005AAD6
:10335000049809F0A9FF012809D1109802220088D9
:1033600005990005000D0AF053FB002804D0182130
:103370000E20129B049A3CE008980222C16802A821
:10338000093104F036FE089802F06CFF401F80B24D
:10339000009005982221095C002906D001290BD054
:1033A000002915D0012919D027E0C18B6A4612895E
:1033B000491E914206DB0BE0018C6A461289491EC8
:1033C00091420BDA18210720129B049A11E012E0B7
:1033D0006A46128900998918C28B04E06A461289EC
:1033E00000998918028C914207D918210D20129B4F
:1033F000049A09F0B7FF2C6B74E0109900F0BEF846
:103400000E900598028C81690E984243881869468F
:103410000989009A43180921089804F04EFF05987D
:103420002221095C012904D169460A8900995118B1
:10343000C1830D98401C0D903F68089903980BF0CC
:1034400031FE0221089805F03FF80398874231D1F8
:103450000598002829D020308079C00721D124E0A8
:103460000A1B93B2F62B00D9F623E2180A928A427D
:1034700005D201222146D20311438C4600E0A44626
:10348000018C0E9A87695143791809196246009296
:103490000191828B1098018802200BF023FB0A987F
:1034A00084B20598C18BA142DAD800202F6B04901A
:1034B000044605900998311A0D98814200D923E7F6
:1034C00013E0109825460088298900052468000D1E
:1034D000884207D1294603980BF0E4FD02212846D3
:1034E00004F0F2FF03988442EBD1002013B0F0BD4A
:1034F000FC0300204006010C00B504483F22028175
:1035000081611121018000F013F800BD000010401E
:1035100000B5064A3F23138180089061034840307C
:1035200001603320108000F003F800BD000010405F
:103530000248018AC907FCD0704700000000104013
:10354000F0B58468083015E0258D8D4203D11460F4
:1035500018600120F0BD25461C602035266A06E073
:10356000B78B8F4202D102201660F0BD3668AE42A2
:10357000F6D124688442E7D10020F0BD30B5024680
:1035800023239B5C0020012B1BD112890D4B9A42F7
:1035900017D10D4A012312689B02D318A0329B6AEF
:1035A000127A0BE00C8825051C2444431C5B2D0D6E
:1035B0002405240DA54204D0401CC0B28242F1D89B
:1035C000002030BD02290000FC030020F7B588B0C0
:1035D00000200290A3480F4604680846FF34413497
:1035E00002F040FE072804D20022062104200A9B94
:1035F0002DE0F968022201A8C91D04F0FAFCF9685F
:1036000002226846093104F0F4FCF968022204A899
:103610000B3104F0EEFC384602F024FEC01F80B2ED
:10362000039068468288008882420DD8002A0BD019
:103630000898012182780A98121D04F055FE00288E
:1036400008D045200BB0F0BD062101200A9B09F0EF
:1036500089FE8AE0083468460594808801F09CFC65
:1036600004007DD06946208D898888421BD3694635
:103670000988884217D86946608D098A88420DD129
:103680000398022801D0102808D1034621460B22B6
:103690000831384604F0E2FE002817D06946208D34
:1036A0000988884250D06846008A0521C9028842AC
:1036B00002D0491C88425AD124680598844243D0DC
:1036C0006846218D00888142CCD93DE002980028CF
:1036D00005D10A990720C9688871012002900898CD
:1036E00081780298081A04282EDB23460299283391
:1036F0001E460222091D0A9804F042FF0298216A20
:10370000801CC5B220462030814205D0636A022267
:10371000291D1C330A9803E033460222291D0A980A
:1037200004F02EFFAD1CE8B2029008988178029850
:10373000081A042808DB24680598844204D06946E6
:10374000208D098888428DD90298002808D0024629
:1037500001210A9804F0E6FE08980088010500E0BF
:1037600079E0090D0A9804F005FF00206AE7264673
:10377000256A2036B5426BD1DDE76946A88B89887A
:10378000884264D3694609888842DDD82320405D99
:1037900001285CD128460899FFF7F0FE069069469B
:1037A0002889098A884252D108980122008829462E
:1037B0000005000D0AF02CF9002848D1E98B039888
:1037C000814244D1288C0699AA69484311180B22DA
:1037D0003846039B04F042FE002838D102980028A6
:1037E00005D10A990720C9688871012002900898BC
:1037F00081780298081A0428A6DB02992B461C330C
:103800000222091D0A9804F0BBFE02981649801C8A
:10381000C0B202902889884207D12868B04204D0FB
:103820000089884201D02D68F7E702992B461C33A6
:103830000222091D0A9804F0A3FE0298801CC0B25F
:103840000290089881780298081A0428D4DB2D6821
:10385000B54292D16FE76846828806210A200A9B0A
:10386000F5E60000FC03002003280000F7B584B053
:1038700008F082FD84B2002069460872054605986A
:103880000068039002F0FEFA064633E06846017ACB
:103890006D1CFF2934D0FE2904D0002902D0492014
:1038A00007B0F0BD234AA000801800686B46070AE5
:1038B0001F70070C5F70000E9870641CA0B283002C
:1038C0009B181C686B46DC70270A1F71240C5C7106
:1038D000401C84B2A00080180768FE2906D1062289
:1038E0001846049904F081FB00280BD0B808001991
:1038F000401C84B202A9204608F044F9B542C5D361
:103900005C20CDE70398874201D91F20C8E70598BE
:103910000025084E076009E0641CA4B2A0008019CD
:1039200001680698401909F0F4FB2D1DBD42F3D340
:103930000020B5E70000041010B50E4900050B6823
:103940000121890259188A6A0021000DA0331B7ACF
:103950000CE01C244C43145B2405240D844203D149
:103960001C204143881810BD491CC9B28B42F0D8B5
:10397000002010BDFC030020FFB589B000241546CF
:103980001046059402F06EFC052804D000220421A4
:1039900008460C9B21E0E968022207A8C91D04F033
:1039A00028FBE96802226846093104F022FB6846D8
:1039B000828B008882420DD8002A0BD00A98012100
:1039C00082780C98121D04F08FFC002808D01F206C
:1039D0000DB0F0BD042101200C9B09F0C3FCBCE03C
:1039E0006846808B01F0D8FA060073D06946308DA6
:1039F000898B884233D36946098888422FD8002CA6
:103A00000AD101200C990590C968052088710C998C
:103A10000598C9680224C8710A988078001B042898
:103A20007EDB059801287BD10C980222C168A01D7D
:103A300008183146283104F0DCFA0C98A41CE4B2D2
:103A4000C168A01D0818314602222A3104F0D1FABB
:103A50006946A41C308D0988E4B288426FD037468D
:103A6000356A2037BD4262D163E06946A88B898BF5
:103A700088425BD369460988884260D8002C35D0DB
:103A80002320415D059881425BD10A988078001B14
:103A9000042802DB0599012904D0122851DB05987E
:103AA00002284ED10C980222C168A01D0818294690
:103AB0001C3104F09EFAA41C0598E4B201280AD037
:103AC0002B4608331022211D0C9804F059FD1034A8
:103AD000E4B22BE04DE00C980222C168A01D08184A
:103AE0002946083104F085FAA41CF1E72320405D43
:103AF0000C990590C968052088710C990598C968CA
:103B00000222C8710C982946C0681C31083004F0A4
:103B100070FA0598012822D02B460833102200E0C5
:103B20000DE008210C9804F02BFD14242D68BD42F3
:103B30009BD1099836680830864200D056E7002CA1
:103B400017D0224601210C9804F0ECFC0A9800885A
:103B50000105090D0C9804F00DFD002038E70C98C4
:103B60002946C068022208310A3004F042FA0624CD
:103B7000DCE76846828B04210A200C9B2DE70000BD
:103B800030B50C490246096803231B0212050020C8
:103B9000120DCB18A031097A09E05C688500641920
:103BA00024882405240D944203D0401CC0B28142D5
:103BB000F3D830BDFC03002030B502460B48032388
:103BC00000681B020021C318A030047A09E058687D
:103BD0008D00401905882D052D0D954204D0491CF6
:103BE000C9B28C42F3D8002030BD0000FC03002095
:103BF000830810B50B4800210268012080021018CC
:103C0000A032806A127A08E01C244C43045B002C2A
:103C100001D0994204D0491CC9B28A42F4D800208C
:103C200010BD0000FC030020F7B598B016465E25D5
:103C300009F070F8040057D0E07BC00723D06D2056
:103C4000005D810903291ED081091CD0400617D5CB
:103C5000264805210068C9014018008A694685B2D6
:103C600000200870284607F08DFF08AF023768343F
:103C700068460078FE280AD0FF2801D0002812D01C
:103C800047201BB0F0BD06222146683117E001A98C
:103C9000284608F023F8002805D13946204609F0C7
:103CA000C5F9002808D002F0EFF8401985B269463E
:103CB000284607F067FFDBE7062210A9023115A8A6
:103CC00004F097F9324615A8199909F0D7FE054670
:103CD0005D2809D172B608F04DF962B6324615A8D2
:103CE000199909F0CBFE05462846CAE7FC030020D7
:103CF00070B50C460B4E81000B4832680D1801233D
:103D00002032537621462846FFF702FC286800211E
:103D1000844201D1084600E04A20326820325176C0
:103D200070BD0000FC0300200000041038B51649E7
:103D30000C682146B631AA34A278D20703D0E278C3
:103D400080231A43E270A27852071BD522795207CA
:103D500005D5E27A002A02D10122E2724880207958
:103D60004106090F0ED078210840694608700020EE
:103D700048706A46022142200AF0ECFD2079872132
:103D80000840207138BD0000FC030020F8B505464E
:103D900000276846077015480C260468AA34207965
:103DA0008006800F03D00021084603F001F8A078B8
:103DB000400718D520794C21084214D10023287ED1
:103DC0006A46194600F04AFA00280DD16846007884
:103DD00028762F74284602F07BFD060003D1207957
:103DE0004021084320713046F8BD0000FC0300204C
:103DF00070B592B00646202221A101A8FCF700FA76
:103E0000202109A8FCF737FC0A216846017000242C
:103E10002546694601A803F05DF96846027801A9C4
:103E200009A804F0E6F801A824E0015D491CC9B224
:103E3000914223D803195B78B34214D16B461A78A8
:103E4000521A6118C9B24118D2B209A81A704019A1
:103E500004F0CFF86B4618782818C1B209A803F00F
:103E60002DFB12B070BD521A6B461A706218691899
:103E7000D4B2CDB269460A78002AD6D11F20F0E725
:103E800002FF0102010403028FFC00000000000099
:103E90000000000000000000000000000000000022
:103EA00038B51048002104680846AA3402F080FFA3
:103EB000694648702079C10704D001216A46117013
:103EC00088432071C0B2810705D502216A4611706E
:103ED000FD210840207102216A4608460AF03AFD99
:103EE00038BD0000FC030020FFB50C4676A003C8D7
:103EF00095B0019100900321C9026846C185012156
:103F000008A8734E017335681746AA3502F0CEF83B
:103F1000002808D13068FF300B3001F0BDFFA878D1
:103F2000002802D00C2019B0F0BD15980722060712
:103F3000360F012C05D0022C06D0002C17D04220C1
:103F4000F1E71020064312E0E120800003F062FA5E
:103F500060A103C91290139112A80DF039FA012043
:103F600003F0A8FA00287DD120200643092201236E
:103F70000BA9284600F01EFF0028F4D10222294692
:103F8000189804F036F829886846018115214902FD
:103F900081818783012181724E2282770024C47738
:103FA00008A8017007224270817002A90AA800F0D7
:103FB000C1FC002856D102220AA91E9804F019F863
:103FC000082F02D26846C78402E008206946C884E8
:103FD00069468C840B46288809AA098D01F050FD9A
:103FE00000286BD13D49684681810227878308A854
:103FF000847002A90AA800F09DFC00285ED102226C
:104000000AA91F9803F0F5FF684604704470C7843E
:104010006B46288809AA198D01F032FD00284DD180
:10402000F00725D02D496846C91C8181082181836C
:10403000877708A8047002A90AA800F07BFC002872
:104040003CD1FF216846C1718171C170817041709E
:1040500001704471047169460820C88428880B46A1
:1040600009AA00E02AE0098D01F00AFD002825D107
:10407000B00625D52988684601811849A531818176
:104080000121818381728777C47708A80470072192
:104090004170847002A90AA800F04CFC00280DD1E0
:1040A0006846012101708484C1842C880346018DF7
:1040B00009AA204601F0E4FC002801D0472032E79D
:1040C000AE7000202FE70000626C75656E7267218C
:1040D000FC0300201F02000000000000012A000075
:1040E000034800210068AA30C17081707047000049
:1040F000FC03002070B50C4B1C68AA342379DD0644
:1041000011D45B070FD531280DD1E07A02280AD1EE
:10411000042010700020507002200AF01BFC20794F
:10412000FB210840207170BDFC030020024610B541
:10413000144801240068AA30022A19D0052A03D0A5
:10414000072A05D00A2A1AD14888FFF7EFFD16E0A2
:1041500000790024020600D50124820703D1C2069B
:1041600001D480060BD5084600F070F8044606E03E
:104170008178490703D50179FB221140017120465E
:1041800010BD0000FC03002010B509480468AA34E3
:10419000E07880070BD5002002F024FD02200AF011
:1041A00025FBE07801210843FD210840E07010BDA7
:1041B000FC0300200FB470B5099D012842D1684668
:1041C000848A2148844210D105AC0FCC00F076FAE5
:1041D000002832D108F0DCF8492833D0012831D941
:1041E0002878F321084028702CE01748401C8442AE
:1041F00005D105AD0FCD00F061FA00281DD11520C5
:104200004002844205D105AD0FCD00F057FA0028D9
:1042100013D10D48401E844205D105AD0FCD00F0ED
:104220004DFA002809D10848801C84420AD105AC07
:104230000FCC00F043FA002804D0662070BC08BC04
:1042400004B018470020F9E7022A000008B5002151
:104250006A461170694609F0ABFE08BDFFB5074616
:104260008FB0002004906D480D4604681E46AA34A5
:10427000A178C80602D5E078C00679D4880607D5AB
:10428000E0788006800F03D0022F01D0002E6FD07F
:104290008806800F06D0022F08D0032F06D0002EEC
:1042A00066D003E0012F01D0002FF8D1880603D497
:1042B000002D01D0012D5BD1002E06D13020014010
:1042C000384602F0E9F9002852D11199002008700F
:1042D000A0788006800F7DD00DA909A802F0DAFE33
:1042E00008900EA90BA802F093FF079008980028E9
:1042F00002D00798002801D1012E51D1022F05A824
:1043000007D001F073FD002E35D00898002803D0A7
:1043100011E008F0C1FCF6E7404F0622386809A911
:10432000FF300B3003F061FE00283868416D06D085
:104330004908490041650798002803D011E001228F
:104340001143F7E7354F062238680BA9FF300B30D1
:1043500003F04BFE022100283868426D09D08A43E1
:1043600042650898002806D00798002803D017E077
:1043700040E00A43F4E729480622006805A9FF3017
:104380000B3003F036FE052069460873002E02D17B
:10439000084609F01FFA22480290684609F0D0F951
:1043A000A07880060FD51198032101702079C106ED
:1043B00003D5002D01D0022D1CD1800603D5012D7F
:1043C00001D0032D16D1A078C00625D51199012062
:1043D000087000E011E02079C10601D5002D09D157
:1043E000810601D5012D05D1000615D5002D13D06C
:1043F000012D11D0422013B0F0BD012F0CD1002EA1
:104400000AD1064806220068611DFF300B3003F018
:10441000F0FD1199012008700498ECE7FC030020DE
:10442000A0BB0D003EB50BF09FFF04460CF034F826
:10443000002C01DA002813DB0A48062201686846CE
:10444000FF310B3103F0D5FD68464079400601D5B8
:10445000022000E00320012302AA0021FFF7FEFE54
:104460003EBD0000FC03002030B519488BB0006849
:104470000446AA340546E078B635010612D5A1787F
:10448000C9070CD0800708D5042069460873684620
:1044900009F0A0F902200AF0A9F90020E070400616
:1044A000400EE070207940070FD5E07A01280CD14A
:1044B000152149026846C18201210175688805AB52
:1044C000044A00F091FE0220E0720BB030BD000003
:1044D000FC030020FFFF0000F0B58DB00C4616A9CC
:1044E000E0C90021089109910A910B911599049155
:1044F00005A9E0C112A962C90093019113460146C2
:10450000039602952246012009F0E0FD0DB0F0BDB2
:10451000FEB51E4617460C460546002302AA19465C
:104520003846FFF79BFE00281CD16846017A81714E
:104530000D49281F884200D300250B49A01E891C65
:10454000884200D3002468460580448000214171E0
:104550000121017103F0F6F9002803D13146012051
:1045600002F026FCFEBD0000FD3F0000F0B5104C3F
:104570000C25246885B0AA34A678760714D5267948
:10458000B3273E4210D1FFF7C3FF05000CD12079BD
:104590000221084320710620694608730520C002E5
:1045A0000290684609F0CCF8284605B0F0BD00003E
:1045B000FC0300200949AE2209681423525CB6317D
:1045C0001A4208D0498800050905090D000D8142ED
:1045D00001D101207047002070470000FC0300203B
:1045E00070B5044620480C25066886B0AA36012C12
:1045F0000FD0022C0DD0042C0BD0082C09D0102C7D
:1046000007D0202C05D0402C03D0802C01D042258F
:1046100027E03079204224D0082C12D0402C10D032
:104620000620012C03D0022C01D0802C04D1694635
:104630000873684609F0CEF80021084602F0B8FB7E
:1046400001E002F06FFA05000BD130790021A043A0
:104650003071684604744174022104AA08460AF0C5
:1046600079F9284606B070BDFC030020C2688A4371
:10467000C260704710B50446022000F03DF80E48B5
:1046800001210068890241188A6A0021A030007A5D
:1046900006E01C234B43D35A002B04D0491CC9B25B
:1046A0008842F6D810BD1C2041435452881804217A
:1046B00000F02CF810BD0000FC0300201FB582B0F4
:1046C000002401F0D7FB694608F00EFE00986A4608
:1046D000016A1289203009E023235B5C012B04D19D
:1046E0000B89934201D1641CE4B209688142F3D181
:1046F000204606B010BD000003490968FF31813132
:104700000A7A02430A727047FC030020C2680A4317
:10471000C260704700B51138C0B2FFF769FA0028CF
:1047200004D00122C16852051143C16000BD704729
:1047300070B5027901239B070168002A02D0062A7E
:1047400003D007E05A688A4303E0002202715A68E6
:104750000A435A6000210F260268CA40D207D20FCE
:1047600019D0082909D2DC6A8A0035469540AC4345
:10477000057995402C43DC620DE00A46083A082A88
:1047800009D28A003546203A1C6B9540AC43057926
:1047900095402C431C63491CC9B21A29DCD34179CA
:1047A0000129D968026809D09143D960817901292A
:1047B0009968006804D08143996070BD1143F4E7A3
:1047C0000143F9E703480068AA3080788006800F2B
:1047D00070470000FC030020F3B599B008880A90E8
:1047E000081D1DC84E880DAD1DC58C8ACD8A087E5A
:1047F0001890C86920310390087802904878079093
:1048000088780690C87805900F7900F097FD002809
:1048100017D10120400284425DD8AC425BD8002F02
:1048200001D1AC4257D113A90A9808F05DFD0128C7
:1048300006D117AA3046139908F036FD012802D098
:1048400060201BB0F0BD139E14A93046183003F051
:1048500059FA149800280FD0304616A9203003F0DA
:1048600051FA169B149A308D716AD21880188A8B6F
:10487000904203D16220E4E71F20E2E717982C4B17
:1048800002899A4227D12322125C012A23D100688F
:1048900000681590189801281FD16846808E29223B
:1048A0001202801A030009F0B5FB0604180404077D
:1048B0000A18022C0FD110E0072C0CD10DE0042CAB
:1048C00009D3E00707D1012F07D1A54203D3042D57
:1048D00001D3E80701D06120B3E7069B0598079A4A
:1048E0000B900C970992039A02980A9308900695E8
:1048F000059407920DA81DC8019002A81CC0189825
:104900000B46009032461599199800F0ABF9002833
:1049100097D168460649808EFF31884205D01998A4
:10492000018800200A4601F057FC002089E70000BA
:1049300003280000F3B5A5B008881A9088780C46C3
:104940000E901022091D10A8FBF728FEA08A0D90DA
:10495000A17D68460172E07D1490207E2090677EE4
:10496000A07E1F900020064601460F9020A80181DE
:104970000F20B94C23902068FF304130199000F08F
:10498000DDFC00280BD101210D98490288425CD83A
:1049900021A91A9808F0A8FC012802D0602027B0AD
:1049A000F0BD2198169001F065FA1A9988420CD151
:1049B00002A801901398009010AD0ECD0E98FFF74D
:1049C000F9FB002801D06620E9E76846017A8806ED
:1049D000800F05D001200F902068A030007A46009B
:1049E000C80703D00F98401CB61C0F90080603D5CB
:1049F0000F98401CB61C0F90169815A918301D90E2
:104A000003F080F90F9C1598A41CA04235D316988A
:104A100018A920301C9003F075F9189900290CD0C2
:104A20001698169A406A159B128D5918808B51184A
:104A3000081AA04201D26220B1E7169884690E9844
:104A40002568012803D0022803D06120A7E70520AC
:104A500000E01320E0832A4639461498FDF7E8FE6B
:104A600061289CD0199FE28B4037788B398B411A93
:104A70000D9810188019814201DA1F208FE718A9BC
:104A80001C9803F03FF918980028169802D0406A45
:104A9000808B00E0008D2599401C0880259801211D
:104AA0000088A083259802220088401CA8836B48B8
:104AB0002081204620301690C170002181708171C4
:104AC0001998398B406D40186946A061097A0170C8
:104AD000A06929461C31401C03F08BFA0E9801286E
:104AE000A0697DD0102210A9C01C03F082FA2846CC
:104AF000102210A9083003F07CFA388B1330388369
:104B00002E4620360E98F0700D98E8831F98B070EE
:104B10000D9820840D9828841998398B406D401881
:104B2000A86100210D9A03F068FA398B0D980818D6
:104B30003883169901200871169900204871307148
:104B40006846007A810701D50121317101070227EA
:104B5000002902DA317939433171410703D53179BE
:104B6000042211433171400603D5307908210843EE
:104B70003071149870712098B07121461D9803F01F
:104B8000F0F821461C9803F0CDF829461D9803F053
:104B9000E8F829461C9803F0C5F80F98002841D082
:104BA00068461A998181A18BC181078447840124B9
:104BB00008A8047122A80A9008A884732399417355
:104BC00014993820014008A801730721C1730025FA
:104BD00005746846007AC00708D02148694600E09D
:104BE0002BE0088203A924A8FFF7F6FD6846007AA7
:104BF0008006800F07D01A486946401E088203A924
:104C000024A8FFF7E9FD6846007A00060AD52921A5
:104C100009026846018208A84473057303A924A801
:104C2000FFF7DAFD259801880F98401C081882B21A
:104C3000002001F0D1FA0020B1E6022210A9C01C28
:104C400003F0D7F92846022210A9083003F0D1F961
:104C5000388B401D53E70000FC03002003280000B0
:104C600003290000FFB5514887B0036810AA184611
:104C7000FF3041300590109801264D4F9288012851
:104C800003D1BA4201D1A0331E7A059D3446403586
:104C9000688B2B8BC31A16984443099820300390D5
:104CA000A34220DA1F200BB0F0BD2320405C012876
:104CB00017D108896F46388098420CD03C4F7F1E30
:104CC000B84208D07F1CB84205D07F1CB84202D041
:104CD000BF1CB84205D1A04201D0904201D163204F
:104CE000E1E7096803E02923314C1B02FF3C0398EC
:104CF0008142DAD109981B99846918982246FDF7F8
:104D000097FD6128CFD01C98012805D116991598D8
:104D1000814201D26120C6E71598E08327462037FB
:104D20001C98B870169820840A98808B401CA08329
:104D30001098012813D02046102211A9083003F042
:104D400058F91098F8700598298B406D4018A061AB
:104D50001698298B70430818288300250FE011A8A6
:104D60000FC808340FC4183CEBE71698A1696843D4
:104D70000818159A179903F03CF96D1CEDB2B5426D
:104D8000F3D318987871199838711A98B8710998EE
:104D90002146183002F0E5FF2146039802F0C2FFD9
:104DA0000798A18B018000207DE70000FC03002014
:104DB00002290000FFB58FB00F78102205A8891CCA
:104DC000FBF7ECFB4C480568FF35413500F0B6FABF
:104DD00000281FD11198002855D0012F09D168460D
:104DE000808A4649884204D12846A9680830814211
:104DF00049D12846103029690A90814209D00BA96F
:104E0000284602F07FFF11980B99401E0D908142B9
:104E100002D21F2013B0F0BD284608300CA909901B
:104E200002F070FF0C98002812D0EC680BA9204605
:104E3000183002F067FF20460CA9203002F062FF14
:104E4000208D0B9941180C98401C081886B200E080
:104E5000012601200004811B1198814201D26220A9
:104E6000D8E72C69286804901298012802D00228FB
:104E700003D008E00520C00200E021486085012F32
:104E800003D0022F03D06120C4E7022200E01022E9
:104E9000204605A9083003F0ACF8204620300390E6
:104EA00007730F982146068026850A9802F059FF5D
:104EB0002146099802F036FF26461836E661A661BB
:104EC000039860622062119C09E02846049902F070
:104ED00048FF3046049902F025FF28680490641EBC
:104EE000F3D10F9801880D98081882B2002001F0C4
:104EF00073F900208EE70000FC0300200118000079
:104F000001280000FFB583B01E4617460C46084630
:104F100001F0A8F90546E0688079012802D0002058
:104F200007B0F0BD204601F09DF90146412005295A
:104F300001D030701AE0E168897A0A2900D0307017
:104F4000002F0DD0E16805226846891D03F051F855
:104F50006D1E00AAE9B230200132FFF7CBF805E060
:104F6000039822460188022009F052FE4120D7E72B
:104F7000024608480168FF314931086803E0038DA3
:104F8000934202D200688842F9D1884200D10020C1
:104F900070470000FC030020024610B50E4801686F
:104FA000FF314931086803E01C8D944203D818464C
:104FB00003688B42F8D18B420CD1018D914209D20A
:104FC0000146036A20318B4203D0416A898B9142AA
:104FD00000D2002010BD0000FC030020034610B5E5
:104FE0000B481B050168012080020818826A002016
:104FF0001B0DA031097A08E01C244443145B2405EE
:10500000240D9C4203D0401CC0B28142F4D810BD94
:10501000FC030020FEB506461A480068FF30413008
:10502000012906D0022906D0032908D004290BD172
:1050300007E0183000E030300446022504E0243058
:10504000FAE704463C340125204609F0F8FF0746FC
:10505000206800903005000D019010E0009E002FA8
:1050600001D03068009031890198814207D13146E2
:1050700020460AF017F82946304603F025FA7F1E2D
:10508000ECD2FEBDFC030020F0B589B00025554EE2
:10509000029530680446FF34413472B6014640310F
:1050A0004A7802231A434A7062B6FF218931095CAB
:1050B000C9077DD0012189024018876A44E029464A
:1050C0001C2251437A5A002A3CD0C9190791C96859
:1050D0004A0219D48A0221D5022100910799FF3092
:1050E000098801300905090D0491C0790122800762
:1050F0000AD52121009809F03FFA010004D0049A52
:105100008A80009809F024FA079800880090079890
:1051100000F0B4F8009807F043FB13E0480711D5FE
:10512000079800880005000D07F006FB002805D150
:10513000079800880005000DFDF7A2FB04210798E1
:10514000FFF794FA6D1CEDB23068A821095CA94202
:10515000B5D804F08BFB2046243009F09BFF0128D2
:1051600002D0012004F06EFA20461830054609F0FE
:1051700091FF012802D0002004F064FA3C3420465C
:1051800009F088FF01280DD002A9204609F09AFFF6
:105190000420029901F05AF90028F0D02046029923
:1051A00009F068FF204609F075FF012818D100E0DA
:1051B00016E0284609F06EFF012811D131688002FF
:1051C0000818826A0020A031097A07E01C234343B3
:1051D0009B189B895B0503D4401CC0B28142F5D863
:1051E00009B0F0BDFC030020FFB58BB00746462494
:1051F0001D781022991C06A8FBF7D0F91A4805A9BA
:1052000006683846FF364136FDF71EFB070029D0F9
:105210000599002925D0012D04D0022D02D042206D
:105220000FB0F0BD049506A81DC8009001A81CC0D1
:1052300038460D9B0C9AFCF7D6FE040004D00121E1
:10524000059803F041F90DE0012149033846FFF7C5
:105250005DFA0648786130463C30059909F00AFF4E
:1052600000E01F242046DBE7FC03002071520410FD
:1052700010B5502100F030FB10BD0000F0B5044621
:10528000808985B0800415D52B4841250068022708
:10529000FF300130407A26880122C0070AD02F2132
:1052A000384609F069F9010004D08E808D713846C6
:1052B00009F04EF920880121FFF7ACFE2088022179
:1052C000FFF7A8FE20880321FFF7A4FE2088042111
:1052D000FFF7A0FE20880005000DFFF77FFE850088
:1052E000294611316846017308F074FA29461231D3
:1052F0006846017308F06EFA294613316846017357
:1053000008F068FA68461435057308F063FA2088D7
:1053100000F03AFAA069002802D0022103F0D4F884
:105320001C2200212046656802F067FE1720656098
:10533000A07005B0F0BD0000FC03002070B510485F
:105340000468FF348134207AC00714D0012002F0B1
:10535000E7FF0546207A80070FD5FDF765FC044678
:1053600008481B21408C1E30FBF7E9F94443AC424E
:1053700003D9642070BD472070BD002070BD0000BF
:10538000FC0300201C270020F0B55FA093B000684C
:105390005E4910900868012204469202FF34821888
:1053A0004134926A254640350F922A7AD20702D0BC
:1053B000632013B0F0BDAA8B9E2A01D99E2202E081
:1053C000172A01D21722AA830F9AA826129286576B
:1053D0000CE01C20129970434718786811901C2229
:1053E0000021384602F009FE11987860761E76B2E8
:1053F000002EEEDA20460830E0606460A060246091
:105400000830119060612061FF220021083009F00E
:1054100018FE2046FF220021243009F012FE20460B
:10542000AA7F0021303009F00CFE2046FF22002127
:105430003C3009F006FE00222A7210461726334B34
:1054400006E01C27014679430F9FC9198E70401C46
:105450001968A031097A8142F3D800202883288C6A
:105460000026C7B2688CC0B20F9007E02820E16C1C
:1054700070430918204602F055FC761CBE42F5D355
:10548000002607E03020216D70430918119802F0C2
:1054900049FC761C0F988642F4D30120FFF72CF9C3
:1054A0000124684604701A49418023460422694653
:1054B0000CA8FFF77FFC002822D16846018E81826C
:1054C00014490183042606858475202108A8817269
:1054D0000024C472047307214173847305A90DA8C5
:1054E000FFF728FA00280BD1684604874687818E8B
:1054F00010AB0EAA008E00F0C3FA002800D158E7C6
:1055000000202872472054E70000FFFFFC03002022
:1055100001180000052A0000F3B5884881B004682E
:105520000F462646FF368136307AFF344134C007B5
:105530005FD03889FEF700FA0546019800285AD056
:10554000012846D1002D33D0287B400745D438466A
:1055500000F088FE0100F86880793AD01E281AD140
:105560002A7B120717D508212846FFF77FF82988DC
:10557000012007F05FFF0221384602F0A5FF422418
:105580002D8801223721204608F0F6FF0100E4D0E3
:105590008D802046CEE042060CD5D22801D052287C
:1055A000CFD1A878884203D32046394618301DE071
:1055B000022162E0C1070DD01D2814D01B2812D093
:1055C000A889400515D4012189022846AF61FFF75B
:1055D0009DF8B1E0287BC00601D54520FEBD298895
:1055E000002007F015FF20463946243009F042FD1F
:1055F000A2E04120FEBD002D3ED0F86884791D2C2C
:105600003FD01B2C44D00121384602F05DFF032C13
:1056100049D0052C47D0072C45D0092C43D00B2C62
:1056200041D00D2C3FD00F2C3DD0112C3BD0132C52
:1056300039D0172C37D0192C35D0012C33D0022C6F
:1056400038D0042C36D0062C34D0082C32D00A2C7A
:1056500030D00C2C2ED00E2C2CD0102C2AD0122C6A
:1056600028D0162C26D0182C24D0522C22D0D22C64
:1056700020D01E2C34D037E00121384602F024FF20
:105680005AE02988012007F0C3FE3946022001E0D4
:105690003946012007F07EFE002825D0012138463A
:1056A00002F012FF20E010212846FEF7DFFF2988D4
:1056B000002017E040212846FEF7D8FFA889000502
:1056C00012D5FF2101312846FFF720F82988022052
:1056D00007F09EFE0121C9022846FEF7C7FF03E03E
:1056E0002988032007F0A6FE307A000624D5A87882
:1056F0001B211E30FBF723F80446012002F010FEA8
:105700002146FBF71CF8002816D00C4980220968B6
:105710004226FF3181310B7A044693430B722D8868
:1057200001223621304608F027FF010004D08D8089
:10573000CC80304608F00CFF0020FEBDFC030020AA
:1057400010B5104A1268FF328132127AD20706D0A1
:1057500002280AD0052804D00A2810D101E04120EF
:1057600010BD4888FEF786FF09E04888FEF7E4F898
:10577000002804D00122C16892051143C1600020B5
:1057800010BD0000FC030020F1B5FFB085B047203C
:105790000190002000904E4807688498FF374137F9
:1057A000FEF7CAF8029000286BD0B968083749E0C4
:1057B00000980D4604AC20186B46022228310FF0E9
:1057C00063F90098294620186B4601222C310FF00E
:1057D0005BF92E462036307B0099012804A809D0B9
:1057E00040186B461022294608310FF04DF9019000
:1057F0002C6A24E040186B460222F4E7009904A8C2
:10580000401821466B4602221C310FF03DF90099E9
:1058100004A8401821466B46012223310FF034F9C9
:105820002320005D0099012804A82DD040182146AE
:105830006B46102208310FF027F901902468B4421A
:10584000DCD12968B942B3D10198002819D1009858
:10585000810709D0011D890889000A1A009104A94D
:1058600008180B2102F0C9FB0298008806F064FFBB
:10587000002806D1849804AA0005000D0099FEF7BF
:10588000D3F97FB006B0F0BD401821466B46022226
:1058900008310FF0F9F8019020890E498842CDD1E6
:1058A00020460299FDF76AFE4000A169039009189D
:1058B000009A04A880186B4602220FF0E5F80190C8
:1058C000A169039802220818002102F096FBB5E7AF
:1058D000FC03002002290000F0B58FB00D460446FD
:1058E000002069460874059064480668A069FF3680
:1058F00041360190002816D0A806800F03D02088DA
:10590000FEF758FE059004AB2046059A0199FFF773
:10591000F9FA412870D0E80708D021880220019ABE
:1059200008F0CEFD68E041200FB0F0BD680705D556
:1059300021880220019A08F07DFD5DE0A80742D58C
:10594000019800F08FFCA178814205D921880220BE
:10595000019A08F0FFFC4FE0207B400605D50121AD
:1059600089022046FEF7D2FE85E0012002F0FEFC0F
:10597000050026D020880105090D284602F0FAFD11
:1059800021880220019A08F0E5FC6168C8788A78CD
:1059900000021043A278401E1718487809780202C6
:1059A0000A43BBB229462046FCF7F6FA30462946A0
:1059B0003C3009F05FFB6068B9B2801C07F0A5FBC2
:1059C00053E04520B0E7E80616D5019800F04AFC00
:1059D000412702280ED90199801EC968CD798542D8
:1059E00001DD012617E0002D04D02946FAF7B5FEA7
:1059F00000290FD068460774012149032046FEF7AD
:105A000035FE059800282AD004AA01212F20FEF790
:105A100071FB2AE006460220002702901CE0059850
:105A200000280CD0029909AB2A46091D019802F002
:105A300044FC294609AA3120FEF75CFB07E00198E7
:105A400000902B4621880220029A09F093F80298D0
:105A50004019C0B27F1C0290B742E0DBCCE7684639
:105A6000027C2188022009F04FF90221A06902F08E
:105A70002BFD0020A061002056E70000FC03002061
:105A8000F0B50746164885B000681D46FF308130E6
:105A9000007A14460E46C00706D003A9384607F020
:105AA00023FC01280AD102E0472005B0F0BD04AA7A
:105AB0003046039907F0F8FB012801D06020F4E795
:105AC000049A218860881268002900D0108C324620
:105AD0006E4631C603233946002000F003F8E4E7A0
